:0100000001FE
:0100010001FD
:0100020001FC
:0100030001FB
:0100040001FA
:0100050001F9
:0100060001F8
:0100070001F7
:0100080001F6
:0100090001F5
:01000A0001F4
:01000B0001F3
:01000C0001F2
:01000D0001F1
:01000E0001F0
:01000F0001EF
:0100100001EE
:0100110001ED
:0100120001EC
:0100130001EB
:0100140001EA
:0100150001E9
:0100160001E8
:0100170001E7
:0100180001E6
:0100190001E5
:01001A0001E4
:01001B0001E3
:01001C0001E2
:01001D0001E1
:01001E0001E0
:01001F0001DF
:0100200001DE
:0100210001DD
:0100220001DC
:0100230001DB
:0100240001DA
:0100250001D9
:0100260001D8
:0100270001D7
:0100280001D6
:0100290001D5
:01002A0001D4
:01002B0001D3
:01002C0001D2
:01002D0001D1
:01002E0001D0
:01002F0001CF
:0100300001CE
:0100310001CD
:0100320001CC
:0100330001CB
:0100340001CA
:0100350001C9
:0100360001C8
:0100370001C7
:0100380001C6
:0100390001C5
:01003A0001C4
:01003B0001C3
:01003C0001C2
:01003D0001C1
:01003E0001C0
:01003F0001BF
:0100400001BE
:0100410001BD
:0100420001BC
:0100430001BB
:0100440001BA
:0100450001B9
:0100460001B8
:0100470001B7
:0100480001B6
:0100490001B5
:01004A0001B4
:01004B0001B3
:01004C0001B2
:01004D0001B1
:01004E0001B0
:01004F0001AF
:0100500001AE
:0100510001AD
:0100520001AC
:0100530001AB
:0100540001AA
:0100550001A9
:0100560001A8
:0100570001A7
:0100580001A6
:0100590001A5
:01005A0001A4
:01005B0001A3
:01005C0001A2
:01005D0001A1
:01005E0001A0
:01005F00019F
:01006000019E
:01006100019D
:01006200019C
:01006300019B
:01006400019A
:010065000199
:010066000198
:010067000197
:010068000196
:010069000195
:01006A000194
:01006B000193
:01006C000192
:01006D000191
:01006E000190
:01006F00018F
:01007000018E
:01007100018D
:01007200018C
:01007300018B
:01007400018A
:010075000189
:010076000188
:010077000187
:010078000186
:010079000185
:01007A000184
:01007B000183
:01007C000182
:01007D000181
:01007E000180
:01007F00017F
:01008000017E
:01008100017D
:01008200017C
:01008300017B
:01008400017A
:010085000179
:010086000178
:010087000177
:010088000176
:010089000175
:01008A000174
:01008B000173
:01008C000172
:01008D000171
:01008E000170
:01008F00016F
:01009000016E
:01009100016D
:01009200016C
:01009300016B
:01009400016A
:010095000169
:010096000168
:010097000167
:010098000166
:010099000165
:01009A000164
:01009B000163
:01009C000162
:01009D000161
:01009E000160
:01009F00015F
:0100A000015E
:0100A100015D
:0100A200015C
:0100A300015B
:0100A400015A
:0100A5000159
:0100A6000158
:0100A7000157
:0100A8000156
:0100A9000155
:0100AA000154
:0100AB000153
:0100AC000152
:0100AD000151
:0100AE000150
:0100AF00014F
:0100B000014E
:0100B100014D
:0100B200014C
:0100B300014B
:0100B400014A
:0100B5000149
:0100B6000148
:0100B7000147
:0100B8000146
:0100B9000145
:0100BA000144
:0100BB000143
:0100BC000142
:0100BD000141
:0100BE000140
:0100BF00013F
:0100C000013E
:0100C100013D
:0100C200013C
:0100C300013B
:0100C400013A
:0100C5000139
:0100C6000138
:0100C7000137
:0100C8000136
:0100C9000135
:0100CA000134
:0100CB000133
:0100CC000132
:0100CD000131
:0100CE000130
:0100CF00012F
:0100D000012E
:0100D100012D
:0100D200012C
:0100D300012B
:0100D400012A
:0100D5000129
:0100D6000128
:0100D7000127
:0100D8000126
:0100D9000125
:0100DA000124
:0100DB000123
:0100DC000122
:0100DD000121
:0100DE000120
:0100DF00011F
:0100E000011E
:0100E100011D
:0100E200011C
:0100E300011B
:0100E400011A
:0100E5000119
:0100E6000118
:0100E7000117
:0100E8000116
:0100E9000115
:0100EA000114
:0100EB000113
:0100EC000112
:0100ED000111
:0100EE000110
:0100EF00010F
:0100F000010E
:0100F100010D
:0100F200010C
:0100F300010B
:0100F400010A
:0100F5000109
:0100F6000108
:0100F7000107
:0100F8000106
:0100F9000105
:0100FA000104
:0100FB000103
:0100FC000102
:0100FD000101
:0100FE000100
:0100FF0001FF
:0101000001FD
:0101010001FC
:0101020001FB
:0101030001FA
:0101040001F9
:0101050001F8
:0101060001F7
:0101070001F6
:0101080001F5
:0101090001F4
:01010A0001F3
:01010B0001F2
:01010C0001F1
:01010D0001F0
:01010E0001EF
:01010F0001EE
:0101100001ED
:0101110001EC
:0101120001EB
:0101130001EA
:0101140001E9
:0101150001E8
:0101160001E7
:0101170001E6
:0101180001E5
:0101190001E4
:01011A0001E3
:01011B0001E2
:01011C0001E1
:01011D0001E0
:01011E0001DF
:01011F0001DE
:0101200001DD
:0101210001DC
:0101220001DB
:0101230001DA
:0101240001D9
:0101250001D8
:0101260001D7
:0101270001D6
:0101280001D5
:0101290001D4
:01012A0001D3
:01012B0001D2
:01012C0001D1
:01012D0001D0
:01012E0001CF
:01012F0001CE
:0101300001CD
:0101310001CC
:0101320001CB
:0101330001CA
:0101340001C9
:0101350001C8
:0101360001C7
:0101370001C6
:0101380001C5
:0101390001C4
:01013A0001C3
:01013B0001C2
:01013C0001C1
:01013D0001C0
:01013E0001BF
:01013F0001BE
:0101400001BD
:0101410001BC
:0101420001BB
:0101430001BA
:0101440001B9
:0101450001B8
:0101460001B7
:0101470001B6
:0101480001B5
:0101490001B4
:01014A0001B3
:01014B0001B2
:01014C0001B1
:01014D0001B0
:01014E0001AF
:01014F0001AE
:0101500001AD
:0101510001AC
:0101520001AB
:0101530001AA
:0101540001A9
:0101550001A8
:0101560001A7
:0101570001A6
:0101580001A5
:0101590001A4
:01015A0001A3
:01015B0001A2
:01015C0001A1
:01015D0001A0
:01015E00019F
:01015F00019E
:01016000019D
:01016100019C
:01016200019B
:01016300019A
:010164000199
:010165000198
:010166000197
:010167000196
:010168000195
:010169000194
:01016A000193
:01016B000192
:01016C000191
:01016D000190
:01016E00018F
:01016F00018E
:01017000018D
:01017100018C
:01017200018B
:01017300018A
:010174000189
:010175000188
:010176000187
:010177000186
:010178000185
:010179000184
:01017A000183
:01017B000182
:01017C000181
:01017D000180
:01017E00017F
:01017F00017E
:01018000017D
:01018100017C
:01018200017B
:01018300017A
:010184000179
:010185000178
:010186000177
:010187000176
:010188000175
:010189000174
:01018A000173
:01018B000172
:01018C000171
:01018D000170
:01018E00016F
:01018F00016E
:01019000016D
:01019100016C
:01019200016B
:01019300016A
:010194000169
:010195000168
:010196000167
:010197000166
:010198000165
:010199000164
:01019A000163
:01019B000162
:01019C000161
:01019D000160
:01019E00015F
:01019F00015E
:0101A000015D
:0101A100015C
:0101A200015B
:0101A300015A
:0101A4000159
:0101A5000158
:0101A6000157
:0101A7000156
:0101A8000155
:0101A9000154
:0101AA000153
:0101AB000152
:0101AC000151
:0101AD000150
:0101AE00014F
:0101AF00014E
:0101B000014D
:0101B100014C
:0101B200014B
:0101B300014A
:0101B4000149
:0101B5000148
:0101B6000147
:0101B7000146
:0101B8000145
:0101B9000144
:0101BA000143
:0101BB000142
:0101BC000141
:0101BD000140
:0101BE00013F
:0101BF00013E
:0101C000013D
:0101C100013C
:0101C200013B
:0101C300013A
:0101C4000139
:0101C5000138
:0101C6000137
:0101C7000136
:0101C8000135
:0101C9000134
:0101CA000133
:0101CB000132
:0101CC000131
:0101CD000130
:0101CE00012F
:0101CF00012E
:0101D000012D
:0101D100012C
:0101D200012B
:0101D300012A
:0101D4000129
:0101D5000128
:0101D6000127
:0101D7000126
:0101D8000125
:0101D9000124
:0101DA000123
:0101DB000122
:0101DC000121
:0101DD000120
:0101DE00011F
:0101DF00011E
:0101E000011D
:0101E100011C
:0101E200011B
:0101E300011A
:0101E4000119
:0101E5000118
:0101E6000117
:0101E7000116
:0101E8000115
:0101E9000114
:0101EA000113
:0101EB000112
:0101EC000111
:0101ED000110
:0101EE00010F
:0101EF00010E
:0101F000010D
:0101F100010C
:0101F200010B
:0101F300010A
:0101F4000109
:0101F5000108
:0101F6000107
:0101F7000106
:0101F8000105
:0101F9000104
:0101FA000103
:0101FB000102
:0101FC000101
:0101FD000100
:0101FE0001FF
:0101FF0001FE
:0102000001FC
:0102010001FB
:0102020001FA
:0102030001F9
:0102040001F8
:0102050001F7
:0102060001F6
:0102070001F5
:0102080001F4
:0102090001F3
:01020A0001F2
:01020B0001F1
:01020C0001F0
:01020D0001EF
:01020E0001EE
:01020F0001ED
:0102100001EC
:0102110001EB
:0102120001EA
:0102130001E9
:0102140001E8
:0102150001E7
:0102160001E6
:0102170001E5
:0102180001E4
:0102190001E3
:01021A0001E2
:01021B0001E1
:01021C0001E0
:01021D0001DF
:01021E0001DE
:01021F0001DD
:0102200001DC
:0102210001DB
:0102220001DA
:0102230001D9
:0102240001D8
:0102250001D7
:0102260001D6
:0102270001D5
:0102280001D4
:0102290001D3
:01022A0001D2
:01022B0001D1
:01022C0001D0
:01022D0001CF
:01022E0001CE
:01022F0001CD
:0102300001CC
:0102310001CB
:0102320001CA
:0102330001C9
:0102340001C8
:0102350001C7
:0102360001C6
:0102370001C5
:0102380001C4
:0102390001C3
:01023A0001C2
:01023B0001C1
:01023C0001C0
:01023D0001BF
:01023E0001BE
:01023F0001BD
:0102400001BC
:0102410001BB
:0102420001BA
:0102430001B9
:0102440001B8
:0102450001B7
:0102460001B6
:0102470001B5
:0102480001B4
:0102490001B3
:01024A0001B2
:01024B0001B1
:01024C0001B0
:01024D0001AF
:01024E0001AE
:01024F0001AD
:0102500001AC
:0102510001AB
:0102520001AA
:0102530001A9
:0102540001A8
:0102550001A7
:0102560001A6
:0102570001A5
:0102580001A4
:0102590001A3
:01025A0001A2
:01025B0001A1
:01025C0001A0
:01025D00019F
:01025E00019E
:01025F00019D
:01026000019C
:01026100019B
:01026200019A
:010263000199
:010264000198
:010265000197
:010266000196
:010267000195
:010268000194
:010269000193
:01026A000192
:01026B000191
:01026C000190
:01026D00018F
:01026E00018E
:01026F00018D
:01027000018C
:01027100018B
:01027200018A
:010273000189
:010274000188
:010275000187
:010276000186
:010277000185
:010278000184
:010279000183
:01027A000182
:01027B000181
:01027C000180
:01027D00017F
:01027E00017E
:01027F00017D
:01028000017C
:01028100017B
:01028200017A
:010283000179
:010284000178
:010285000177
:010286000176
:010287000175
:010288000174
:010289000173
:01028A000172
:01028B000171
:01028C000170
:01028D00016F
:01028E00016E
:01028F00016D
:01029000016C
:01029100016B
:01029200016A
:010293000169
:010294000168
:010295000167
:010296000166
:010297000165
:010298000164
:010299000163
:01029A000162
:01029B000161
:01029C000160
:01029D00015F
:01029E00015E
:01029F00015D
:0102A000015C
:0102A100015B
:0102A200015A
:0102A3000159
:0102A4000158
:0102A5000157
:0102A6000156
:0102A7000155
:0102A8000154
:0102A9000153
:0102AA000152
:0102AB000151
:0102AC000150
:0102AD00014F
:0102AE00014E
:0102AF00014D
:0102B000014C
:0102B100014B
:0102B200014A
:0102B3000149
:0102B4000148
:0102B5000147
:0102B6000146
:0102B7000145
:0102B8000144
:0102B9000143
:0102BA000142
:0102BB000141
:0102BC000140
:0102BD00013F
:0102BE00013E
:0102BF00013D
:0102C000013C
:0102C100013B
:0102C200013A
:0102C3000139
:0102C4000138
:0102C5000137
:0102C6000136
:0102C7000135
:0102C8000134
:0102C9000133
:0102CA000132
:0102CB000131
:0102CC000130
:0102CD00012F
:0102CE00012E
:0102CF00012D
:0102D000012C
:0102D100012B
:0102D200012A
:0102D3000129
:0102D4000128
:0102D5000127
:0102D6000126
:0102D7000125
:0102D8000124
:0102D9000123
:0102DA000122
:0102DB000121
:0102DC000120
:0102DD00011F
:0102DE00011E
:0102DF00011D
:0102E000011C
:0102E100011B
:0102E200011A
:0102E3000119
:0102E4000118
:0102E5000117
:0102E6000116
:0102E7000115
:0102E8000114
:0102E9000113
:0102EA000112
:0102EB000111
:0102EC000110
:0102ED00010F
:0102EE00010E
:0102EF00010D
:0102F000010C
:0102F100010B
:0102F200010A
:0102F3000109
:0102F4000108
:0102F5000107
:0102F6000106
:0102F7000105
:0102F8000104
:0102F9000103
:0102FA000102
:0102FB000101
:0102FC000100
:0102FD0001FF
:0102FE0001FE
:0102FF0001FD
:0103000001FB
:0103010001FA
:0103020001F9
:0103030001F8
:0103040001F7
:0103050001F6
:0103060001F5
:0103070001F4
:0103080001F3
:0103090001F2
:01030A0001F1
:01030B0001F0
:01030C0001EF
:01030D0001EE
:01030E0001ED
:01030F0001EC
:0103100001EB
:0103110001EA
:0103120001E9
:0103130001E8
:0103140001E7
:0103150001E6
:0103160001E5
:0103170001E4
:0103180001E3
:0103190001E2
:01031A0001E1
:01031B0001E0
:01031C0001DF
:01031D0001DE
:01031E0001DD
:01031F0001DC
:0103200001DB
:0103210001DA
:0103220001D9
:0103230001D8
:0103240001D7
:0103250001D6
:0103260001D5
:0103270001D4
:0103280001D3
:0103290001D2
:01032A0001D1
:01032B0001D0
:01032C0001CF
:01032D0001CE
:01032E0001CD
:01032F0001CC
:0103300001CB
:0103310001CA
:0103320001C9
:0103330001C8
:0103340001C7
:0103350001C6
:0103360001C5
:0103370001C4
:0103380001C3
:0103390001C2
:01033A0001C1
:01033B0001C0
:01033C0001BF
:01033D0001BE
:01033E0001BD
:01033F0001BC
:0103400001BB
:0103410001BA
:0103420001B9
:0103430001B8
:0103440001B7
:0103450001B6
:0103460001B5
:0103470001B4
:0103480001B3
:0103490001B2
:01034A0001B1
:01034B0001B0
:01034C0001AF
:01034D0001AE
:01034E0001AD
:01034F0001AC
:0103500001AB
:0103510001AA
:0103520001A9
:0103530001A8
:0103540001A7
:0103550001A6
:0103560001A5
:0103570001A4
:0103580001A3
:0103590001A2
:01035A0001A1
:01035B0001A0
:01035C00019F
:01035D00019E
:01035E00019D
:01035F00019C
:01036000019B
:01036100019A
:010362000199
:010363000198
:010364000197
:010365000196
:010366000195
:010367000194
:010368000193
:010369000192
:01036A000191
:01036B000190
:01036C00018F
:01036D00018E
:01036E00018D
:01036F00018C
:01037000018B
:01037100018A
:010372000189
:010373000188
:010374000187
:010375000186
:010376000185
:010377000184
:010378000183
:010379000182
:01037A000181
:01037B000180
:01037C00017F
:01037D00017E
:01037E00017D
:01037F00017C
:01038000017B
:01038100017A
:010382000179
:010383000178
:010384000177
:010385000176
:010386000175
:010387000174
:010388000173
:010389000172
:01038A000171
:01038B000170
:01038C00016F
:01038D00016E
:01038E00016D
:01038F00016C
:01039000016B
:01039100016A
:010392000169
:010393000168
:010394000167
:010395000166
:010396000165
:010397000164
:010398000163
:010399000162
:01039A000161
:01039B000160
:01039C00015F
:01039D00015E
:01039E00015D
:01039F00015C
:0103A000015B
:0103A100015A
:0103A2000159
:0103A3000158
:0103A4000157
:0103A5000156
:0103A6000155
:0103A7000154
:0103A8000153
:0103A9000152
:0103AA000151
:0103AB000150
:0103AC00014F
:0103AD00014E
:0103AE00014D
:0103AF00014C
:0103B000014B
:0103B100014A
:0103B2000149
:0103B3000148
:0103B4000147
:0103B5000146
:0103B6000145
:0103B7000144
:0103B8000143
:0103B9000142
:0103BA000141
:0103BB000140
:0103BC00013F
:0103BD00013E
:0103BE00013D
:0103BF00013C
:0103C000013B
:0103C100013A
:0103C2000139
:0103C3000138
:0103C4000137
:0103C5000136
:0103C6000135
:0103C7000134
:0103C8000133
:0103C9000132
:0103CA000131
:0103CB000130
:0103CC00012F
:0103CD00012E
:0103CE00012D
:0103CF00012C
:0103D000012B
:0103D100012A
:0103D2000129
:0103D3000128
:0103D4000127
:0103D5000126
:0103D6000125
:0103D7000124
:0103D8000123
:0103D9000122
:0103DA000121
:0103DB000120
:0103DC00011F
:0103DD00011E
:0103DE00011D
:0103DF00011C
:0103E000011B
:0103E100011A
:0103E2000119
:0103E3000118
:0103E4000117
:0103E5000116
:0103E6000115
:0103E7000114
:0103E8000113
:0103E9000112
:0103EA000111
:0103EB000110
:0103EC00010F
:0103ED00010E
:0103EE00010D
:0103EF00010C
:0103F000010B
:0103F100010A
:0103F2000109
:0103F3000108
:0103F4000107
:0103F5000106
:0103F6000105
:0103F7000104
:0103F8000103
:0103F9000102
:0103FA000101
:0103FB000100
:0103FC0001FF
:0103FD0001FE
:0103FE0001FD
:0103FF0001FC
:0104000001FA
:0104010001F9
:0104020001F8
:0104030001F7
:0104040001F6
:0104050001F5
:0104060001F4
:0104070001F3
:0104080001F2
:0104090001F1
:01040A0001F0
:01040B0001EF
:01040C0001EE
:01040D0001ED
:01040E0001EC
:01040F0001EB
:0104100001EA
:0104110001E9
:0104120001E8
:0104130001E7
:0104140001E6
:0104150001E5
:0104160001E4
:0104170001E3
:0104180001E2
:0104190001E1
:01041A0001E0
:01041B0001DF
:01041C0001DE
:01041D0001DD
:01041E0001DC
:01041F0001DB
:0104200001DA
:0104210001D9
:0104220001D8
:0104230001D7
:0104240001D6
:0104250001D5
:0104260001D4
:0104270001D3
:0104280001D2
:0104290001D1
:01042A0001D0
:01042B0001CF
:01042C0001CE
:01042D0001CD
:01042E0001CC
:01042F0001CB
:0104300001CA
:0104310001C9
:0104320001C8
:0104330001C7
:0104340001C6
:0104350001C5
:0104360001C4
:0104370001C3
:0104380001C2
:0104390001C1
:01043A0001C0
:01043B0001BF
:01043C0001BE
:01043D0001BD
:01043E0001BC
:01043F0001BB
:0104400001BA
:0104410001B9
:0104420001B8
:0104430001B7
:0104440001B6
:0104450001B5
:0104460001B4
:0104470001B3
:0104480001B2
:0104490001B1
:01044A0001B0
:01044B0001AF
:01044C0001AE
:01044D0001AD
:01044E0001AC
:01044F0001AB
:0104500001AA
:0104510001A9
:0104520001A8
:0104530001A7
:0104540001A6
:0104550001A5
:0104560001A4
:0104570001A3
:0104580001A2
:0104590001A1
:01045A0001A0
:01045B00019F
:01045C00019E
:01045D00019D
:01045E00019C
:01045F00019B
:01046000019A
:010461000199
:010462000198
:010463000197
:010464000196
:010465000195
:010466000194
:010467000193
:010468000192
:010469000191
:01046A000190
:01046B00018F
:01046C00018E
:01046D00018D
:01046E00018C
:01046F00018B
:01047000018A
:010471000189
:010472000188
:010473000187
:010474000186
:010475000185
:010476000184
:010477000183
:010478000182
:010479000181
:01047A000180
:01047B00017F
:01047C00017E
:01047D00017D
:01047E00017C
:01047F00017B
:01048000017A
:010481000179
:010482000178
:010483000177
:010484000176
:010485000175
:010486000174
:010487000173
:010488000172
:010489000171
:01048A000170
:01048B00016F
:01048C00016E
:01048D00016D
:01048E00016C
:01048F00016B
:01049000016A
:010491000169
:010492000168
:010493000167
:010494000166
:010495000165
:010496000164
:010497000163
:010498000162
:010499000161
:01049A000160
:01049B00015F
:01049C00015E
:01049D00015D
:01049E00015C
:01049F00015B
:0104A000015A
:0104A1000159
:0104A2000158
:0104A3000157
:0104A4000156
:0104A5000155
:0104A6000154
:0104A7000153
:0104A8000152
:0104A9000151
:0104AA000150
:0104AB00014F
:0104AC00014E
:0104AD00014D
:0104AE00014C
:0104AF00014B
:0104B000014A
:0104B1000149
:0104B2000148
:0104B3000147
:0104B4000146
:0104B5000145
:0104B6000144
:0104B7000143
:0104B8000142
:0104B9000141
:0104BA000140
:0104BB00013F
:0104BC00013E
:0104BD00013D
:0104BE00013C
:0104BF00013B
:0104C000013A
:0104C1000139
:0104C2000138
:0104C3000137
:0104C4000136
:0104C5000135
:0104C6000134
:0104C7000133
:0104C8000132
:0104C9000131
:0104CA000130
:0104CB00012F
:0104CC00012E
:0104CD00012D
:0104CE00012C
:0104CF00012B
:0104D000012A
:0104D1000129
:0104D2000128
:0104D3000127
:0104D4000126
:0104D5000125
:0104D6000124
:0104D7000123
:0104D8000122
:0104D9000121
:0104DA000120
:0104DB00011F
:0104DC00011E
:0104DD00011D
:0104DE00011C
:0104DF00011B
:0104E000011A
:0104E1000119
:0104E2000118
:0104E3000117
:0104E4000116
:0104E5000115
:0104E6000114
:0104E7000113
:0104E8000112
:0104E9000111
:0104EA000110
:0104EB00010F
:0104EC00010E
:0104ED00010D
:0104EE00010C
:0104EF00010B
:0104F000010A
:0104F1000109
:0104F2000108
:0104F3000107
:0104F4000106
:0104F5000105
:0104F6000104
:0104F7000103
:0104F8000102
:0104F9000101
:0104FA000100
:0104FB0001FF
:0104FC0001FE
:0104FD0001FD
:0104FE0001FC
:0104FF0001FB
:0105000001F9
:0105010001F8
:0105020001F7
:0105030001F6
:0105040001F5
:0105050001F4
:0105060001F3
:0105070001F2
:0105080001F1
:0105090001F0
:01050A0001EF
:01050B0001EE
:01050C0001ED
:01050D0001EC
:01050E0001EB
:01050F0001EA
:0105100001E9
:0105110001E8
:0105120001E7
:0105130001E6
:0105140001E5
:0105150001E4
:0105160001E3
:0105170001E2
:0105180001E1
:0105190001E0
:01051A0001DF
:01051B0001DE
:01051C0001DD
:01051D0001DC
:01051E0001DB
:01051F0001DA
:0105200001D9
:0105210001D8
:0105220001D7
:0105230001D6
:0105240001D5
:0105250001D4
:0105260001D3
:0105270001D2
:0105280001D1
:0105290001D0
:01052A0001CF
:01052B0001CE
:01052C0001CD
:01052D0001CC
:01052E0001CB
:01052F0001CA
:0105300001C9
:0105310001C8
:0105320001C7
:0105330001C6
:0105340001C5
:0105350001C4
:0105360001C3
:0105370001C2
:0105380001C1
:0105390001C0
:01053A0001BF
:01053B0001BE
:01053C0001BD
:01053D0001BC
:01053E0001BB
:01053F0001BA
:0105400001B9
:0105410001B8
:0105420001B7
:0105430001B6
:0105440001B5
:0105450001B4
:0105460001B3
:0105470001B2
:0105480001B1
:0105490001B0
:01054A0001AF
:01054B0001AE
:01054C0001AD
:01054D0001AC
:01054E0001AB
:01054F0001AA
:0105500001A9
:0105510001A8
:0105520001A7
:0105530001A6
:0105540001A5
:0105550001A4
:0105560001A3
:0105570001A2
:0105580001A1
:0105590001A0
:01055A00019F
:01055B00019E
:01055C00019D
:01055D00019C
:01055E00019B
:01055F00019A
:010560000199
:010561000198
:010562000197
:010563000196
:010564000195
:010565000194
:010566000193
:010567000192
:010568000191
:010569000190
:01056A00018F
:01056B00018E
:01056C00018D
:01056D00018C
:01056E00018B
:01056F00018A
:010570000189
:010571000188
:010572000187
:010573000186
:010574000185
:010575000184
:010576000183
:010577000182
:010578000181
:010579000180
:01057A00017F
:01057B00017E
:01057C00017D
:01057D00017C
:01057E00017B
:01057F00017A
:010580000179
:010581000178
:010582000177
:010583000176
:010584000175
:010585000174
:010586000173
:010587000172
:010588000171
:010589000170
:01058A00016F
:01058B00016E
:01058C00016D
:01058D00016C
:01058E00016B
:01058F00016A
:010590000169
:010591000168
:010592000167
:010593000166
:010594000165
:010595000164
:010596000163
:010597000162
:010598000161
:010599000160
:01059A00015F
:01059B00015E
:01059C00015D
:01059D00015C
:01059E00015B
:01059F00015A
:0105A0000159
:0105A1000158
:0105A2000157
:0105A3000156
:0105A4000155
:0105A5000154
:0105A6000153
:0105A7000152
:0105A8000151
:0105A9000150
:0105AA00014F
:0105AB00014E
:0105AC00014D
:0105AD00014C
:0105AE00014B
:0105AF00014A
:0105B0000149
:0105B1000148
:0105B2000147
:0105B3000146
:0105B4000145
:0105B5000144
:0105B6000143
:0105B7000142
:0105B8000141
:0105B9000140
:0105BA00013F
:0105BB00013E
:0105BC00013D
:0105BD00013C
:0105BE00013B
:0105BF00013A
:0105C0000139
:0105C1000138
:0105C2000137
:0105C3000136
:0105C4000135
:0105C5000134
:0105C6000133
:0105C7000132
:0105C8000131
:0105C9000130
:0105CA00012F
:0105CB00012E
:0105CC00012D
:0105CD00012C
:0105CE00012B
:0105CF00012A
:0105D0000129
:0105D1000128
:0105D2000127
:0105D3000126
:0105D4000125
:0105D5000124
:0105D6000123
:0105D7000122
:0105D8000121
:0105D9000120
:0105DA00011F
:0105DB00011E
:0105DC00011D
:0105DD00011C
:0105DE00011B
:0105DF00011A
:0105E0000119
:0105E1000118
:0105E2000117
:0105E3000116
:0105E4000115
:0105E5000114
:0105E6000113
:0105E7000112
:0105E8000111
:0105E9000110
:0105EA00010F
:0105EB00010E
:0105EC00010D
:0105ED00010C
:0105EE00010B
:0105EF00010A
:0105F0000109
:0105F1000108
:0105F2000107
:0105F3000106
:0105F4000105
:0105F5000104
:0105F6000103
:0105F7000102
:0105F8000101
:0105F9000100
:0105FA0001FF
:0105FB0001FE
:0105FC0001FD
:0105FD0001FC
:0105FE0001FB
:0105FF0001FA
:0106000001F8
:0106010001F7
:0106020001F6
:0106030001F5
:0106040001F4
:0106050001F3
:0106060001F2
:0106070001F1
:0106080001F0
:0106090001EF
:01060A0001EE
:01060B0001ED
:01060C0001EC
:01060D0001EB
:01060E0001EA
:01060F0001E9
:0106100001E8
:0106110001E7
:0106120001E6
:0106130001E5
:0106140001E4
:0106150001E3
:0106160000E3
:0106170000E2
:0106180000E1
:0106190001DF
:01061A0001DE
:01061B0001DD
:01061C0001DC
:01061D0001DB
:01061E0001DA
:01061F0001D9
:0106200001D8
:0106210001D7
:0106220001D6
:0106230001D5
:0106240001D4
:0106250001D3
:0106260001D2
:0106270001D1
:0106280001D0
:0106290001CF
:01062A0001CE
:01062B0001CD
:01062C0001CC
:01062D0001CB
:01062E0001CA
:01062F0001C9
:0106300001C8
:0106310001C7
:0106320001C6
:0106330001C5
:0106340001C4
:0106350001C3
:0106360001C2
:0106370001C1
:0106380001C0
:0106390001BF
:01063A0001BE
:01063B0001BD
:01063C0001BC
:01063D0001BB
:01063E0001BA
:01063F0001B9
:0106400001B8
:0106410001B7
:0106420001B6
:0106430001B5
:0106440001B4
:0106450001B3
:0106460001B2
:0106470001B1
:0106480001B0
:0106490001AF
:01064A0001AE
:01064B0001AD
:01064C0001AC
:01064D0001AB
:01064E0001AA
:01064F0001A9
:0106500001A8
:0106510001A7
:0106520001A6
:0106530001A5
:0106540001A4
:0106550001A3
:0106560001A2
:0106570001A1
:0106580001A0
:01065900019F
:01065A00019E
:01065B00019D
:01065C00019C
:01065D00019B
:01065E00019A
:01065F000199
:010660000198
:010661000197
:010662000196
:010663000195
:010664000194
:010665000193
:010666000093
:010667000092
:010668000190
:01066900018F
:01066A00018E
:01066B00018D
:01066C00018C
:01066D00018B
:01066E00018A
:01066F000189
:010670000188
:010671000187
:010672000186
:010673000185
:010674000184
:010675000183
:010676000182
:010677000181
:010678000180
:01067900017F
:01067A00017E
:01067B00017D
:01067C00017C
:01067D00017B
:01067E00017A
:01067F000179
:010680000178
:010681000177
:010682000176
:010683000175
:010684000174
:010685000173
:010686000172
:010687000171
:010688000170
:01068900016F
:01068A00016E
:01068B00016D
:01068C00016C
:01068D00016B
:01068E00016A
:01068F000169
:010690000168
:010691000167
:010692000166
:010693000165
:010694000164
:010695000163
:010696000162
:010697000161
:010698000160
:01069900015F
:01069A00015E
:01069B00015D
:01069C00015C
:01069D00015B
:01069E00015A
:01069F000159
:0106A0000158
:0106A1000157
:0106A2000156
:0106A3000155
:0106A4000154
:0106A5000153
:0106A6000152
:0106A7000151
:0106A8000150
:0106A900014F
:0106AA00014E
:0106AB00014D
:0106AC00014C
:0106AD00014B
:0106AE00014A
:0106AF000149
:0106B0000148
:0106B1000147
:0106B2000146
:0106B3000145
:0106B4000144
:0106B5000143
:0106B6000043
:0106B7000141
:0106B8000140
:0106B900013F
:0106BA00013E
:0106BB00013D
:0106BC00013C
:0106BD00013B
:0106BE00013A
:0106BF000139
:0106C0000138
:0106C1000137
:0106C2000136
:0106C3000135
:0106C4000134
:0106C5000133
:0106C6000132
:0106C7000131
:0106C8000130
:0106C900012F
:0106CA00012E
:0106CB00012D
:0106CC00012C
:0106CD00012B
:0106CE00012A
:0106CF000129
:0106D0000128
:0106D1000127
:0106D2000126
:0106D3000125
:0106D4000124
:0106D5000123
:0106D6000122
:0106D7000121
:0106D8000120
:0106D900011F
:0106DA00011E
:0106DB00011D
:0106DC00011C
:0106DD00011B
:0106DE00011A
:0106DF000119
:0106E0000118
:0106E1000117
:0106E2000116
:0106E3000115
:0106E4000114
:0106E5000113
:0106E6000112
:0106E7000111
:0106E8000110
:0106E900010F
:0106EA00010E
:0106EB00010D
:0106EC00010C
:0106ED00010B
:0106EE00010A
:0106EF000109
:0106F0000108
:0106F1000107
:0106F2000106
:0106F3000105
:0106F4000104
:0106F5000103
:0106F6000102
:0106F7000101
:0106F8000100
:0106F90001FF
:0106FA0001FE
:0106FB0001FD
:0106FC0001FC
:0106FD0001FB
:0106FE0001FA
:0106FF0000FA
:0107000001F7
:0107010001F6
:0107020001F5
:0107030001F4
:0107040001F3
:0107050001F2
:0107060001F1
:0107070001F0
:0107080001EF
:0107090001EE
:01070A0001ED
:01070B0001EC
:01070C0001EB
:01070D0001EA
:01070E0001E9
:01070F0001E8
:0107100001E7
:0107110001E6
:0107120001E5
:0107130001E4
:0107140001E3
:0107150001E2
:0107160001E1
:0107170001E0
:0107180001DF
:0107190001DE
:01071A0001DD
:01071B0001DC
:01071C0001DB
:01071D0001DA
:01071E0001D9
:01071F0001D8
:0107200001D7
:0107210001D6
:0107220001D5
:0107230001D4
:0107240001D3
:0107250001D2
:0107260001D1
:0107270001D0
:0107280001CF
:0107290001CE
:01072A0001CD
:01072B0001CC
:01072C0001CB
:01072D0001CA
:01072E0001C9
:01072F0001C8
:0107300001C7
:0107310001C6
:0107320001C5
:0107330001C4
:0107340001C3
:0107350001C2
:0107360001C1
:0107370001C0
:0107380001BF
:0107390001BE
:01073A0001BD
:01073B0001BC
:01073C0001BB
:01073D0001BA
:01073E0001B9
:01073F0001B8
:0107400001B7
:0107410001B6
:0107420001B5
:0107430001B4
:0107440000B4
:0107450000B3
:0107460000B2
:0107470000B1
:0107480000B0
:0107490000AF
:01074A0000AE
:01074B0000AD
:01074C0000AC
:01074D0000AB
:01074E0000AA
:01074F0001A8
:0107500001A7
:0107510001A6
:0107520001A5
:0107530001A4
:0107540001A3
:0107550001A2
:0107560001A1
:0107570001A0
:01075800019F
:01075900019E
:01075A00019D
:01075B00019C
:01075C00009C
:01075D00009B
:01075E00009A
:01075F000198
:010760000197
:010761000196
:010762000195
:010763000194
:010764000193
:010765000192
:010766000191
:010767000190
:01076800018F
:01076900018E
:01076A00018D
:01076B00018C
:01076C00018B
:01076D00018A
:01076E000189
:01076F000188
:010770000187
:010771000186
:010772000185
:010773000184
:010774000183
:010775000182
:010776000181
:010777000180
:01077800017F
:01077900017E
:01077A00017D
:01077B00017C
:01077C00017B
:01077D00017A
:01077E000179
:01077F000178
:010780000177
:010781000176
:010782000175
:010783000174
:010784000173
:010785000172
:010786000171
:010787000170
:01078800016F
:01078900016E
:01078A00016D
:01078B00016C
:01078C00016B
:01078D00016A
:01078E000169
:01078F000168
:010790000167
:010791000166
:010792000165
:010793000065
:010794000064
:010795000063
:010796000062
:010797000061
:010798000060
:01079900005F
:01079A00005E
:01079B00005D
:01079C00005C
:01079D00005B
:01079E00005A
:01079F000158
:0107A0000157
:0107A1000156
:0107A2000155
:0107A3000154
:0107A4000153
:0107A5000152
:0107A6000151
:0107A7000150
:0107A800014F
:0107A900014E
:0107AA00014D
:0107AB00004D
:0107AC00004C
:0107AD00004B
:0107AE00004A
:0107AF000049
:0107B0000048
:0107B1000047
:0107B2000046
:0107B3000045
:0107B4000044
:0107B5000142
:0107B6000141
:0107B7000140
:0107B800013F
:0107B900013E
:0107BA00013D
:0107BB00013C
:0107BC00013B
:0107BD00013A
:0107BE000139
:0107BF000138
:0107C0000137
:0107C1000136
:0107C2000135
:0107C3000134
:0107C4000133
:0107C5000132
:0107C6000131
:0107C7000130
:0107C800012F
:0107C900012E
:0107CA00012D
:0107CB00012C
:0107CC00012B
:0107CD00012A
:0107CE000129
:0107CF000128
:0107D0000127
:0107D1000126
:0107D2000125
:0107D3000124
:0107D4000123
:0107D5000122
:0107D6000121
:0107D7000120
:0107D800011F
:0107D900011E
:0107DA00011D
:0107DB00011C
:0107DC00011B
:0107DD00011A
:0107DE000119
:0107DF000118
:0107E0000117
:0107E1000116
:0107E2000115
:0107E3000015
:0107E4000014
:0107E5000013
:0107E6000012
:0107E7000011
:0107E8000010
:0107E900000F
:0107EA00000E
:0107EB00000D
:0107EC00000C
:0107ED00000B
:0107EE000109
:0107EF000108
:0107F0000107
:0107F1000106
:0107F2000105
:0107F3000104
:0107F4000103
:0107F5000102
:0107F6000101
:0107F7000100
:0107F80001FF
:0107F90001FE
:0107FA0001FD
:0107FB0000FD
:0107FC0000FC
:0107FD0000FB
:0107FE0000FA
:0107FF0000F9
:0108000000F7
:0108010000F6
:0108020000F5
:0108030000F4
:0108040000F3
:0108050000F2
:0108060000F1
:0108070001EF
:0108080001EE
:0108090001ED
:01080A0001EC
:01080B0001EB
:01080C0001EA
:01080D0001E9
:01080E0001E8
:01080F0001E7
:0108100001E6
:0108110001E5
:0108120001E4
:0108130001E3
:0108140001E2
:0108150001E1
:0108160001E0
:0108170001DF
:0108180001DE
:0108190001DD
:01081A0001DC
:01081B0001DB
:01081C0001DA
:01081D0001D9
:01081E0001D8
:01081F0001D7
:0108200001D6
:0108210001D5
:0108220001D4
:0108230001D3
:0108240001D2
:0108250001D1
:0108260001D0
:0108270001CF
:0108280001CE
:0108290001CD
:01082A0001CC
:01082B0001CB
:01082C0001CA
:01082D0001C9
:01082E0001C8
:01082F0001C7
:0108300001C6
:0108310001C5
:0108320001C4
:0108330000C4
:0108340000C3
:0108350000C2
:0108360000C1
:0108370000C0
:0108380000BF
:0108390000BE
:01083A0000BD
:01083B0000BC
:01083C0000BB
:01083D0001B9
:01083E0001B8
:01083F0001B7
:0108400001B6
:0108410001B5
:0108420001B4
:0108430001B3
:0108440001B2
:0108450001B1
:0108460001B0
:0108470001AF
:0108480001AE
:0108490001AD
:01084A0000AD
:01084B0000AC
:01084C0000AB
:01084D0000AA
:01084E0000A9
:01084F0000A8
:0108500000A7
:0108510000A6
:0108520000A5
:0108530000A4
:0108540000A3
:0108550000A2
:0108560001A0
:01085700019F
:01085800019E
:01085900019D
:01085A00019C
:01085B00019B
:01085C00019A
:01085D000199
:01085E000198
:01085F000197
:010860000196
:010861000195
:010862000194
:010863000193
:010864000192
:010865000191
:010866000190
:01086700018F
:01086800018E
:01086900018D
:01086A00018C
:01086B00018B
:01086C00018A
:01086D000189
:01086E000188
:01086F000187
:010870000186
:010871000185
:010872000184
:010873000183
:010874000182
:010875000181
:010876000180
:01087700017F
:01087800017E
:01087900017D
:01087A00017C
:01087B00017B
:01087C00017A
:01087D000179
:01087E000178
:01087F000177
:010880000176
:010881000175
:010882000174
:010883000074
:010884000073
:010885000072
:010886000071
:010887000070
:01088800006F
:01088900006E
:01088A00006D
:01088B00006C
:01088C00006B
:01088D000169
:01088E000168
:01088F000167
:010890000166
:010891000165
:010892000164
:010893000163
:010894000162
:010895000161
:010896000160
:01089700015F
:01089800015E
:01089900015D
:01089A00005D
:01089B00005C
:01089C00005B
:01089D00005A
:01089E000059
:01089F000058
:0108A0000057
:0108A1000056
:0108A2000055
:0108A3000054
:0108A4000053
:0108A5000052
:0108A6000150
:0108A700014F
:0108A800014E
:0108A900014D
:0108AA00014C
:0108AB00014B
:0108AC00014A
:0108AD000149
:0108AE000148
:0108AF000147
:0108B0000146
:0108B1000145
:0108B2000144
:0108B3000143
:0108B4000142
:0108B5000141
:0108B6000140
:0108B700013F
:0108B800013E
:0108B900013D
:0108BA00013C
:0108BB00013B
:0108BC00013A
:0108BD000139
:0108BE000138
:0108BF000137
:0108C0000136
:0108C1000135
:0108C2000134
:0108C3000133
:0108C4000132
:0108C5000131
:0108C6000130
:0108C700012F
:0108C800012E
:0108C900012D
:0108CA00012C
:0108CB00012B
:0108CC00012A
:0108CD000129
:0108CE000128
:0108CF000127
:0108D0000126
:0108D1000125
:0108D2000124
:0108D3000024
:0108D4000023
:0108D5000022
:0108D6000021
:0108D7000020
:0108D800001F
:0108D900001E
:0108DA00001D
:0108DB00001C
:0108DC00011A
:0108DD000119
:0108DE000118
:0108DF000117
:0108E0000116
:0108E1000115
:0108E2000114
:0108E3000113
:0108E4000112
:0108E5000111
:0108E6000110
:0108E700010F
:0108E800010E
:0108E900010D
:0108EA00010C
:0108EB00010B
:0108EC00000B
:0108ED00000A
:0108EE000009
:0108EF000008
:0108F0000007
:0108F1000006
:0108F2000005
:0108F3000004
:0108F4000003
:0108F5000002
:0108F6000100
:0108F70001FF
:0108F80001FE
:0108F90001FD
:0108FA0001FC
:0108FB0001FB
:0108FC0001FA
:0108FD0001F9
:0108FE0001F8
:0108FF0001F7
:0109000001F5
:0109010001F4
:0109020001F3
:0109030001F2
:0109040001F1
:0109050001F0
:0109060001EF
:0109070001EE
:0109080001ED
:0109090001EC
:01090A0001EB
:01090B0001EA
:01090C0001E9
:01090D0001E8
:01090E0001E7
:01090F0001E6
:0109100001E5
:0109110001E4
:0109120001E3
:0109130001E2
:0109140001E1
:0109150001E0
:0109160001DF
:0109170001DE
:0109180001DD
:0109190001DC
:01091A0001DB
:01091B0001DA
:01091C0001D9
:01091D0001D8
:01091E0001D7
:01091F0001D6
:0109200001D5
:0109210001D4
:0109220001D3
:0109230000D3
:0109240000D2
:0109250000D1
:0109260000D0
:0109270000CF
:0109280000CE
:0109290000CD
:01092A0000CC
:01092B0000CB
:01092C0001C9
:01092D0001C8
:01092E0001C7
:01092F0001C6
:0109300001C5
:0109310001C4
:0109320001C3
:0109330001C2
:0109340001C1
:0109350001C0
:0109360001BF
:0109370001BE
:0109380001BD
:0109390001BC
:01093A0001BB
:01093B0001BA
:01093C0001B9
:01093D0000B9
:01093E0000B8
:01093F0000B7
:0109400000B6
:0109410000B5
:0109420000B4
:0109430000B3
:0109440000B2
:0109450001B0
:0109460001AF
:0109470001AE
:0109480001AD
:0109490001AC
:01094A0001AB
:01094B0001AA
:01094C0001A9
:01094D0001A8
:01094E0001A7
:01094F0001A6
:0109500001A5
:0109510001A4
:0109520001A3
:0109530001A2
:0109540001A1
:0109550001A0
:01095600019F
:01095700019E
:01095800019D
:01095900019C
:01095A00019B
:01095B00009B
:01095C00009A
:01095D000198
:01095E000197
:01095F000196
:010960000195
:010961000194
:010962000193
:010963000192
:010964000191
:010965000190
:01096600018F
:01096700018E
:01096800018D
:01096900018C
:01096A00018B
:01096B00018A
:01096C000189
:01096D000188
:01096E000187
:01096F000186
:010970000185
:010971000184
:010972000183
:010973000083
:010974000082
:010975000081
:010976000080
:01097700007F
:01097800007E
:01097900007D
:01097A00007C
:01097B00007B
:01097C000179
:01097D000178
:01097E000177
:01097F000176
:010980000175
:010981000174
:010982000173
:010983000172
:010984000171
:010985000170
:01098600016F
:01098700016E
:01098800016D
:01098900016C
:01098A00016B
:01098B00016A
:01098C000169
:01098D000168
:01098E000068
:01098F000067
:010990000066
:010991000065
:010992000064
:010993000063
:010994000062
:010995000160
:01099600015F
:01099700015E
:01099800015D
:01099900015C
:01099A00015B
:01099B00015A
:01099C000159
:01099D000158
:01099E000157
:01099F000156
:0109A0000155
:0109A1000154
:0109A2000153
:0109A3000152
:0109A4000151
:0109A5000150
:0109A600014F
:0109A700014E
:0109A800014D
:0109A900004D
:0109AA00004C
:0109AB00004B
:0109AC00004A
:0109AD000148
:0109AE000147
:0109AF000146
:0109B0000145
:0109B1000144
:0109B2000143
:0109B3000142
:0109B4000141
:0109B5000140
:0109B600013F
:0109B700013E
:0109B800013D
:0109B900013C
:0109BA00013B
:0109BB00013A
:0109BC000139
:0109BD000138
:0109BE000137
:0109BF000136
:0109C0000135
:0109C1000134
:0109C2000133
:0109C3000033
:0109C4000032
:0109C5000031
:0109C6000030
:0109C700002F
:0109C800002E
:0109C900002D
:0109CA00002C
:0109CB00002B
:0109CC00002A
:0109CD000029
:0109CE000127
:0109CF000126
:0109D0000125
:0109D1000124
:0109D2000123
:0109D3000122
:0109D4000121
:0109D5000120
:0109D600011F
:0109D700011E
:0109D800011D
:0109D900011C
:0109DA00011B
:0109DB00011A
:0109DC000119
:0109DD000019
:0109DE000018
:0109DF000017
:0109E0000016
:0109E1000015
:0109E2000014
:0109E3000013
:0109E4000111
:0109E5000110
:0109E600010F
:0109E700010E
:0109E800010D
:0109E900010C
:0109EA00010B
:0109EB00010A
:0109EC000109
:0109ED000108
:0109EE000107
:0109EF000106
:0109F0000105
:0109F1000104
:0109F2000103
:0109F3000102
:0109F4000101
:0109F5000100
:0109F60001FF
:0109F70001FE
:0109F80000FE
:0109F90000FD
:0109FA0000FC
:0109FB0000FB
:0109FC0000FA
:0109FD0000F9
:0109FE0001F7
:0109FF0001F6
:010A000001F4
:010A010001F3
:010A020001F2
:010A030001F1
:010A040001F0
:010A050001EF
:010A060001EE
:010A070001ED
:010A080001EC
:010A090001EB
:010A0A0001EA
:010A0B0001E9
:010A0C0001E8
:010A0D0001E7
:010A0E0001E6
:010A0F0001E5
:010A100001E4
:010A110001E3
:010A120001E2
:010A130000E2
:010A140000E1
:010A150000E0
:010A160000DF
:010A170000DE
:010A180000DD
:010A190000DC
:010A1A0000DB
:010A1B0000DA
:010A1C0000D9
:010A1D0000D8
:010A1E0000D7
:010A1F0000D6
:010A200001D4
:010A210001D3
:010A220001D2
:010A230001D1
:010A240001D0
:010A250001CF
:010A260001CE
:010A270001CD
:010A280001CC
:010A290001CB
:010A2A0001CA
:010A2B0001C9
:010A2C0000C9
:010A2D0000C8
:010A2E0000C7
:010A2F0000C6
:010A300000C5
:010A310000C4
:010A320000C3
:010A330000C2
:010A340001C0
:010A350001BF
:010A360001BE
:010A370001BD
:010A380001BC
:010A390001BB
:010A3A0001BA
:010A3B0001B9
:010A3C0001B8
:010A3D0001B7
:010A3E0001B6
:010A3F0001B5
:010A400001B4
:010A410001B3
:010A420001B2
:010A430001B1
:010A440001B0
:010A450001AF
:010A460001AE
:010A470001AD
:010A480000AD
:010A490000AC
:010A4A0000AB
:010A4B0000AA
:010A4C0000A9
:010A4D0000A8
:010A4E0001A6
:010A4F0001A5
:010A500001A4
:010A510001A3
:010A520001A2
:010A530001A1
:010A540001A0
:010A5500019F
:010A5600019E
:010A5700019D
:010A5800019C
:010A5900019B
:010A5A00019A
:010A5B000199
:010A5C000198
:010A5D000197
:010A5E000196
:010A5F000195
:010A60000194
:010A61000193
:010A62000192
:010A63000092
:010A64000091
:010A65000090
:010A6600008F
:010A6700008E
:010A6800008D
:010A6900008C
:010A6A00008B
:010A6B00008A
:010A6C000089
:010A6D000088
:010A6E000087
:010A6F000086
:010A70000085
:010A71000084
:010A72000182
:010A73000181
:010A74000180
:010A7500017F
:010A7600017E
:010A7700017D
:010A7800017C
:010A7900017B
:010A7A00007B
:010A7B00007A
:010A7C000079
:010A7D000078
:010A7E000077
:010A7F000076
:010A80000075
:010A81000074
:010A82000073
:010A83000072
:010A84000170
:010A8500016F
:010A8600016E
:010A8700016D
:010A8800016C
:010A8900016B
:010A8A00016A
:010A8B000169
:010A8C000168
:010A8D000167
:010A8E000166
:010A8F000165
:010A90000164
:010A91000163
:010A92000162
:010A93000161
:010A94000160
:010A9500015F
:010A9600015E
:010A9700005E
:010A9800005D
:010A9900005C
:010A9A00005B
:010A9B00005A
:010A9C000059
:010A9D000157
:010A9E000156
:010A9F000155
:010AA0000154
:010AA1000153
:010AA2000152
:010AA3000151
:010AA4000150
:010AA500014F
:010AA600014E
:010AA700014D
:010AA800014C
:010AA900014B
:010AAA00014A
:010AAB000149
:010AAC000148
:010AAD000147
:010AAE000146
:010AAF000145
:010AB0000144
:010AB1000143
:010AB2000142
:010AB3000042
:010AB4000041
:010AB5000040
:010AB600003F
:010AB700003E
:010AB800003D
:010AB900003C
:010ABA00003B
:010ABB00003A
:010ABC000039
:010ABD000038
:010ABE000037
:010ABF000036
:010AC0000134
:010AC1000133
:010AC2000132
:010AC3000131
:010AC4000130
:010AC500012F
:010AC600012E
:010AC700012D
:010AC800012C
:010AC900002C
:010ACA00002B
:010ACB00002A
:010ACC000029
:010ACD000028
:010ACE000027
:010ACF000026
:010AD0000025
:010AD1000024
:010AD2000023
:010AD3000121
:010AD4000120
:010AD500011F
:010AD600011E
:010AD700011D
:010AD800011C
:010AD900011B
:010ADA00011A
:010ADB000119
:010ADC000118
:010ADD000117
:010ADE000116
:010ADF000115
:010AE0000114
:010AE1000113
:010AE2000112
:010AE3000111
:010AE4000011
:010AE5000010
:010AE600000F
:010AE700000E
:010AE800000D
:010AE900000C
:010AEA00000B
:010AEB000109
:010AEC000108
:010AED000107
:010AEE000106
:010AEF000105
:010AF0000104
:010AF1000103
:010AF2000102
:010AF3000101
:010AF4000100
:010AF50001FF
:010AF60001FE
:010AF70001FD
:010AF80001FC
:010AF90001FB
:010AFA0001FA
:010AFB0001F9
:010AFC0001F8
:010AFD0001F7
:010AFE0001F6
:010AFF0001F5
:010B000001F3
:010B010001F2
:010B020001F1
:010B030000F1
:010B040000F0
:010B050000EF
:010B060000EE
:010B070000ED
:010B080000EC
:010B090000EB
:010B0A0000EA
:010B0B0000E9
:010B0C0000E8
:010B0D0000E7
:010B0E0001E5
:010B0F0001E4
:010B100001E3
:010B110001E2
:010B120001E1
:010B130001E0
:010B140001DF
:010B150001DE
:010B160001DD
:010B170000DD
:010B180000DC
:010B190000DB
:010B1A0000DA
:010B1B0000D9
:010B1C0000D8
:010B1D0000D7
:010B1E0000D6
:010B1F0000D5
:010B200000D4
:010B210000D3
:010B220000D2
:010B230001D0
:010B240001CF
:010B250001CE
:010B260001CD
:010B270001CC
:010B280001CB
:010B290001CA
:010B2A0001C9
:010B2B0001C8
:010B2C0001C7
:010B2D0001C6
:010B2E0001C5
:010B2F0001C4
:010B300001C3
:010B310001C2
:010B320000C2
:010B330000C1
:010B340000C0
:010B350000BF
:010B360000BE
:010B370000BD
:010B380001BB
:010B390001BA
:010B3A0001B9
:010B3B0001B8
:010B3C0001B7
:010B3D0001B6
:010B3E0001B5
:010B3F0001B4
:010B400001B3
:010B410001B2
:010B420001B1
:010B430001B0
:010B440001AF
:010B450001AE
:010B460001AD
:010B470001AC
:010B480001AB
:010B490001AA
:010B4A0001A9
:010B4B0001A8
:010B4C0001A7
:010B4D0001A6
:010B4E0001A5
:010B4F0001A4
:010B500001A3
:010B510001A2
:010B520001A1
:010B530001A0
:010B540000A0
:010B5500009F
:010B5600009E
:010B5700009D
:010B5800009C
:010B5900009B
:010B5A00009A
:010B5B000099
:010B5C000098
:010B5D000196
:010B5E000195
:010B5F000194
:010B60000193
:010B61000192
:010B62000191
:010B63000190
:010B6400018F
:010B6500018E
:010B6600018D
:010B6700008D
:010B6800008C
:010B6900008B
:010B6A00008A
:010B6B000089
:010B6C000088
:010B6D000087
:010B6E000086
:010B6F000085
:010B70000084
:010B71000083
:010B72000082
:010B73000180
:010B7400017F
:010B7500017E
:010B7600017D
:010B7700017C
:010B7800017B
:010B7900017A
:010B7A000179
:010B7B000178
:010B7C000177
:010B7D000176
:010B7E000175
:010B7F000174
:010B80000173
:010B81000073
:010B82000072
:010B83000071
:010B84000070
:010B8500006F
:010B8600006E
:010B8700006D
:010B8800016B
:010B8900016A
:010B8A000169
:010B8B000168
:010B8C000167
:010B8D000166
:010B8E000165
:010B8F000164
:010B90000163
:010B91000162
:010B92000161
:010B93000160
:010B9400015F
:010B9500015E
:010B9600015D
:010B9700015C
:010B9800015B
:010B9900015A
:010B9A000159
:010B9B000158
:010B9C000157
:010B9D000156
:010B9E000155
:010B9F000154
:010BA0000153
:010BA1000152
:010BA2000151
:010BA3000150
:010BA4000050
:010BA500004F
:010BA600004E
:010BA700004D
:010BA800004C
:010BA900004B
:010BAA00004A
:010BAB000148
:010BAC000147
:010BAD000146
:010BAE000145
:010BAF000144
:010BB0000143
:010BB1000142
:010BB2000141
:010BB3000140
:010BB400013F
:010BB500013E
:010BB600013D
:010BB700013C
:010BB800003C
:010BB900003B
:010BBA00003A
:010BBB000039
:010BBC000038
:010BBD000037
:010BBE000036
:010BBF000035
:010BC0000034
:010BC1000033
:010BC2000131
:010BC3000130
:010BC400012F
:010BC500012E
:010BC600012D
:010BC700012C
:010BC800012B
:010BC900012A
:010BCA000129
:010BCB000128
:010BCC000127
:010BCD000126
:010BCE000125
:010BCF000124
:010BD0000024
:010BD1000023
:010BD2000022
:010BD3000021
:010BD4000020
:010BD500001F
:010BD600001E
:010BD700011C
:010BD800011B
:010BD900011A
:010BDA000119
:010BDB000118
:010BDC000117
:010BDD000116
:010BDE000115
:010BDF000114
:010BE0000113
:010BE1000112
:010BE2000111
:010BE3000110
:010BE400010F
:010BE500010E
:010BE600010D
:010BE700010C
:010BE800010B
:010BE900010A
:010BEA000109
:010BEB000108
:010BEC000107
:010BED000106
:010BEE000105
:010BEF000104
:010BF0000103
:010BF1000102
:010BF2000101
:010BF3000100
:010BF4000000
:010BF50000FF
:010BF60000FE
:010BF70000FD
:010BF80000FC
:010BF90001FA
:010BFA0001F9
:010BFB0001F8
:010BFC0001F7
:010BFD0001F6
:010BFE0001F5
:010BFF0001F4
:010C000001F2
:010C010001F1
:010C020001F0
:010C030001EF
:010C040001EE
:010C050001ED
:010C060001EC
:010C070001EB
:010C080001EA
:010C090001E9
:010C0A0000E9
:010C0B0000E8
:010C0C0000E7
:010C0D0000E6
:010C0E0000E5
:010C0F0000E4
:010C100000E3
:010C110000E2
:010C120001E0
:010C130001DF
:010C140001DE
:010C150001DD
:010C160001DC
:010C170001DB
:010C180001DA
:010C190001D9
:010C1A0001D8
:010C1B0001D7
:010C1C0001D6
:010C1D0001D5
:010C1E0001D4
:010C1F0000D4
:010C200000D3
:010C210000D2
:010C220000D1
:010C230000D0
:010C240000CF
:010C250000CE
:010C260001CC
:010C270001CB
:010C280001CA
:010C290001C9
:010C2A0001C8
:010C2B0001C7
:010C2C0001C6
:010C2D0001C5
:010C2E0001C4
:010C2F0001C3
:010C300001C2
:010C310001C1
:010C320001C0
:010C330001BF
:010C340001BE
:010C350001BD
:010C360001BC
:010C370001BB
:010C380001BA
:010C390001B9
:010C3A0001B8
:010C3B0001B7
:010C3C0001B6
:010C3D0001B5
:010C3E0001B4
:010C3F0001B3
:010C400001B2
:010C410001B1
:010C420001B0
:010C430001AF
:010C440000AF
:010C450000AE
:010C460000AD
:010C470000AC
:010C480000AB
:010C490001A9
:010C4A0001A8
:010C4B0001A7
:010C4C0001A6
:010C4D0001A5
:010C4E0001A4
:010C4F0001A3
:010C500001A2
:010C510001A1
:010C520001A0
:010C5300019F
:010C5400019E
:010C5500019D
:010C5600019C
:010C5700019B
:010C5800019A
:010C59000199
:010C5A000198
:010C5B000098
:010C5C000097
:010C5D000096
:010C5E000095
:010C5F000094
:010C60000093
:010C61000191
:010C62000190
:010C6300018F
:010C6400018E
:010C6500018D
:010C6600018C
:010C6700018B
:010C6800018A
:010C6900008A
:010C6A000089
:010C6B000187
:010C6C000186
:010C6D000185
:010C6E000085
:010C6F000084
:010C70000083
:010C71000082
:010C72000081
:010C73000080
:010C7400007F
:010C7500017D
:010C7600017C
:010C7700017B
:010C7800017A
:010C79000179
:010C7A000178
:010C7B000177
:010C7C000176
:010C7D000175
:010C7E000174
:010C7F000173
:010C80000172
:010C81000171
:010C82000170
:010C8300016F
:010C8400016E
:010C8500016D
:010C8600016C
:010C8700016B
:010C8800016A
:010C89000169
:010C8A000168
:010C8B000167
:010C8C000166
:010C8D000165
:010C8E000164
:010C8F000163
:010C90000162
:010C91000161
:010C92000160
:010C9300015F
:010C9400015E
:010C9500005E
:010C9600005D
:010C9700005C
:010C9800005B
:010C9900005A
:010C9A000059
:010C9B000058
:010C9C000156
:010C9D000155
:010C9E000154
:010C9F000153
:010CA0000152
:010CA1000151
:010CA2000150
:010CA300014F
:010CA400014E
:010CA500014D
:010CA600014C
:010CA700014B
:010CA800014A
:010CA9000149
:010CAA000148
:010CAB000147
:010CAC000047
:010CAD000046
:010CAE000045
:010CAF000044
:010CB0000043
:010CB1000141
:010CB2000140
:010CB300013F
:010CB400013E
:010CB500013D
:010CB600013C
:010CB700013B
:010CB800003B
:010CB900003A
:010CBA000039
:010CBB000038
:010CBC000136
:010CBD000036
:010CBE000035
:010CBF000034
:010CC0000033
:010CC1000032
:010CC2000031
:010CC300012F
:010CC400012E
:010CC500012D
:010CC600012C
:010CC700012B
:010CC800012A
:010CC9000129
:010CCA000128
:010CCB000127
:010CCC000126
:010CCD000125
:010CCE000124
:010CCF000123
:010CD0000122
:010CD1000121
:010CD2000120
:010CD300011F
:010CD400011E
:010CD500011D
:010CD600011C
:010CD700011B
:010CD800011A
:010CD9000119
:010CDA000118
:010CDB000117
:010CDC000116
:010CDD000115
:010CDE000114
:010CDF000113
:010CE0000112
:010CE1000111
:010CE2000110
:010CE300010F
:010CE400010E
:010CE500000E
:010CE600000D
:010CE700000C
:010CE800000B
:010CE900000A
:010CEA000009
:010CEB000008
:010CEC000007
:010CED000006
:010CEE000005
:010CEF000103
:010CF0000102
:010CF1000101
:010CF2000100
:010CF30001FF
:010CF40001FE
:010CF50001FD
:010CF60001FC
:010CF70001FB
:010CF80001FA
:010CF90001F9
:010CFA0001F8
:010CFB0001F7
:010CFC0000F7
:010CFD0000F6
:010CFE0000F5
:010CFF0000F4
:010D000001F1
:010D010001F0
:010D020001EF
:010D030001EE
:010D040001ED
:010D050001EC
:010D060000EC
:010D070000EB
:010D080000EA
:010D090000E9
:010D0A0000E8
:010D0B0000E7
:010D0C0000E6
:010D0D0000E5
:010D0E0000E4
:010D0F0000E3
:010D100000E2
:010D110000E1
:010D120001DF
:010D130001DE
:010D140001DD
:010D150001DC
:010D160001DB
:010D170001DA
:010D180001D9
:010D190001D8
:010D1A0001D7
:010D1B0001D6
:010D1C0001D5
:010D1D0001D4
:010D1E0001D3
:010D1F0001D2
:010D200001D1
:010D210001D0
:010D220001CF
:010D230001CE
:010D240001CD
:010D250001CC
:010D260001CB
:010D270001CA
:010D280001C9
:010D290001C8
:010D2A0001C7
:010D2B0001C6
:010D2C0001C5
:010D2D0001C4
:010D2E0001C3
:010D2F0001C2
:010D300001C1
:010D310001C0
:010D320001BF
:010D330001BE
:010D340001BD
:010D350000BD
:010D360000BC
:010D370000BB
:010D380000BA
:010D390000B9
:010D3A0000B8
:010D3B0000B7
:010D3C0000B6
:010D3D0000B5
:010D3E0000B4
:010D3F0000B3
:010D400000B2
:010D410000B1
:010D420001AF
:010D430001AE
:010D440001AD
:010D450001AC
:010D460001AB
:010D470001AA
:010D480001A9
:010D490001A8
:010D4A0001A7
:010D4B0000A7
:010D4C0000A6
:010D4D0000A5
:010D4E0000A4
:010D4F0001A2
:010D500001A1
:010D510001A0
:010D5200019F
:010D5300019E
:010D5400019D
:010D5500019C
:010D5600009C
:010D5700009B
:010D5800009A
:010D59000099
:010D5A000098
:010D5B000097
:010D5C000096
:010D5D000095
:010D5E000094
:010D5F000093
:010D60000191
:010D61000190
:010D6200018F
:010D6300018E
:010D6400018D
:010D6500018C
:010D6600018B
:010D6700018A
:010D68000189
:010D69000188
:010D6A000187
:010D6B000186
:010D6C000185
:010D6D000184
:010D6E000183
:010D6F000182
:010D70000181
:010D71000180
:010D7200017F
:010D7300017E
:010D7400017D
:010D7500017C
:010D7600017B
:010D7700017A
:010D78000179
:010D79000178
:010D7A000177
:010D7B000176
:010D7C000175
:010D7D000174
:010D7E000173
:010D7F000172
:010D80000171
:010D81000170
:010D8200016F
:010D8300016E
:010D8400016D
:010D8500016C
:010D8600006C
:010D8700006B
:010D8800006A
:010D89000069
:010D8A000068
:010D8B000067
:010D8C000066
:010D8D000065
:010D8E000064
:010D8F000063
:010D90000062
:010D91000061
:010D9200015F
:010D9300015E
:010D9400015D
:010D9500015C
:010D9600015B
:010D9700015A
:010D98000159
:010D99000158
:010D9A000157
:010D9B000057
:010D9C000056
:010D9D000055
:010D9E000054
:010D9F000152
:010DA0000151
:010DA1000150
:010DA200014F
:010DA300014E
:010DA400014D
:010DA500014C
:010DA600014B
:010DA700004B
:010DA800004A
:010DA9000049
:010DAA000048
:010DAB000047
:010DAC000046
:010DAD000045
:010DAE000044
:010DAF000142
:010DB0000141
:010DB1000140
:010DB200013F
:010DB300013E
:010DB400013D
:010DB500013C
:010DB600013B
:010DB700013A
:010DB8000139
:010DB9000138
:010DBA000137
:010DBB000136
:010DBC000135
:010DBD000134
:010DBE000133
:010DBF000132
:010DC0000131
:010DC1000130
:010DC200012F
:010DC300012E
:010DC400012D
:010DC500012C
:010DC600012B
:010DC700012A
:010DC8000129
:010DC9000128
:010DCA000127
:010DCB000126
:010DCC000125
:010DCD000124
:010DCE000123
:010DCF000122
:010DD0000121
:010DD1000120
:010DD200011F
:010DD300011E
:010DD400011D
:010DD500011C
:010DD600011B
:010DD700001B
:010DD800001A
:010DD9000019
:010DDA000018
:010DDB000017
:010DDC000016
:010DDD000015
:010DDE000014
:010DDF000013
:010DE0000012
:010DE1000110
:010DE200010F
:010DE300010E
:010DE400010D
:010DE500010C
:010DE600010B
:010DE700010A
:010DE8000109
:010DE9000108
:010DEA000008
:010DEB000007
:010DEC000006
:010DED000005
:010DEE000103
:010DEF000102
:010DF0000101
:010DF1000100
:010DF20001FF
:010DF30001FE
:010DF40001FD
:010DF50001FC
:010DF60001FB
:010DF70001FA
:010DF80000FA
:010DF90000F9
:010DFA0000F8
:010DFB0000F7
:010DFC0000F6
:010DFD0000F5
:010DFE0000F4
:010DFF0001F2
:010E000001F0
:010E010001EF
:010E020001EE
:010E030001ED
:010E040001EC
:010E050001EB
:010E060001EA
:010E070001E9
:010E080001E8
:010E090001E7
:010E0A0001E6
:010E0B0001E5
:010E0C0001E4
:010E0D0001E3
:010E0E0001E2
:010E0F0001E1
:010E100001E0
:010E110001DF
:010E120001DE
:010E130001DD
:010E140001DC
:010E150001DB
:010E160001DA
:010E170001D9
:010E180001D8
:010E190001D7
:010E1A0001D6
:010E1B0001D5
:010E1C0001D4
:010E1D0001D3
:010E1E0001D2
:010E1F0001D1
:010E200001D0
:010E210001CF
:010E220001CE
:010E230001CD
:010E240001CC
:010E250001CB
:010E260001CA
:010E270000CA
:010E280000C9
:010E290000C8
:010E2A0000C7
:010E2B0000C6
:010E2C0000C5
:010E2D0000C4
:010E2E0000C3
:010E2F0000C2
:010E300001C0
:010E310001BF
:010E320001BE
:010E330001BD
:010E340001BC
:010E350001BB
:010E360001BA
:010E370001B9
:010E380001B8
:010E390000B8
:010E3A0000B7
:010E3B0000B6
:010E3C0001B4
:010E3D0001B3
:010E3E0001B2
:010E3F0001B1
:010E400001B0
:010E410001AF
:010E420001AE
:010E430001AD
:010E440001AC
:010E450001AB
:010E460001AA
:010E470000AA
:010E480000A9
:010E490000A8
:010E4A0000A7
:010E4B0000A6
:010E4C0000A5
:010E4D0000A4
:010E4E0000A3
:010E4F0000A2
:010E500001A0
:010E5100019F
:010E5200019E
:010E5300019D
:010E5400019C
:010E5500019B
:010E5600019A
:010E57000199
:010E58000198
:010E59000197
:010E5A000196
:010E5B000195
:010E5C000194
:010E5D000193
:010E5E000192
:010E5F000191
:010E60000190
:010E6100018F
:010E6200018E
:010E6300018D
:010E6400018C
:010E6500018B
:010E6600018A
:010E67000189
:010E68000188
:010E69000187
:010E6A000186
:010E6B000185
:010E6C000184
:010E6D000183
:010E6E000182
:010E6F000181
:010E70000180
:010E7100017F
:010E7200017E
:010E7300017D
:010E7400017C
:010E7500017B
:010E7600017A
:010E77000179
:010E78000079
:010E79000078
:010E7A000077
:010E7B000076
:010E7C000075
:010E7D000074
:010E7E000073
:010E7F000072
:010E80000170
:010E8100016F
:010E8200016E
:010E8300016D
:010E8400016C
:010E8500016B
:010E8600016A
:010E87000169
:010E88000069
:010E89000068
:010E8A000166
:010E8B000165
:010E8C000164
:010E8D000163
:010E8E000162
:010E8F000161
:010E90000160
:010E9100015F
:010E9200015E
:010E9300015D
:010E9400015C
:010E9500015B
:010E9600005B
:010E9700005A
:010E98000059
:010E99000058
:010E9A000057
:010E9B000056
:010E9C000055
:010E9D000054
:010E9E000053
:010E9F000052
:010EA0000150
:010EA100014F
:010EA200014E
:010EA300014D
:010EA400014C
:010EA500014B
:010EA600014A
:010EA7000149
:010EA8000148
:010EA9000147
:010EAA000146
:010EAB000145
:010EAC000144
:010EAD000143
:010EAE000142
:010EAF000141
:010EB0000140
:010EB100013F
:010EB200013E
:010EB300013D
:010EB400013C
:010EB500013B
:010EB600013A
:010EB7000139
:010EB8000138
:010EB9000137
:010EBA000136
:010EBB000135
:010EBC000134
:010EBD000133
:010EBE000132
:010EBF000131
:010EC0000130
:010EC100012F
:010EC200012E
:010EC300012D
:010EC400012C
:010EC500012B
:010EC600012A
:010EC7000129
:010EC8000128
:010EC9000028
:010ECA000027
:010ECB000026
:010ECC000025
:010ECD000024
:010ECE000023
:010ECF000121
:010ED0000120
:010ED100011F
:010ED200011E
:010ED300011D
:010ED400011C
:010ED500011B
:010ED600011A
:010ED7000119
:010ED8000118
:010ED9000117
:010EDA000116
:010EDB000115
:010EDC000114
:010EDD000113
:010EDE000112
:010EDF000111
:010EE0000110
:010EE100010F
:010EE200010E
:010EE300010D
:010EE400000D
:010EE500000C
:010EE600000B
:010EE700000A
:010EE8000009
:010EE9000008
:010EEA000007
:010EEB000006
:010EEC000005
:010EED000004
:010EEE000003
:010EEF000002
:010EF0000001
:010EF10001FF
:010EF20001FE
:010EF30001FD
:010EF40001FC
:010EF50001FB
:010EF60001FA
:010EF70001F9
:010EF80001F8
:010EF90001F7
:010EFA0001F6
:010EFB0001F5
:010EFC0001F4
:010EFD0001F3
:010EFE0001F2
:010EFF0001F1
:010F000001EF
:010F010001EE
:010F020001ED
:010F030001EC
:010F040001EB
:010F050001EA
:010F060001E9
:010F070001E8
:010F080001E7
:010F090001E6
:010F0A0001E5
:010F0B0001E4
:010F0C0001E3
:010F0D0001E2
:010F0E0001E1
:010F0F0001E0
:010F100001DF
:010F110001DE
:010F120001DD
:010F130001DC
:010F140001DB
:010F150001DA
:010F160001D9
:010F170001D8
:010F180001D7
:010F190001D6
:010F1A0000D6
:010F1B0000D5
:010F1C0000D4
:010F1D0000D3
:010F1E0001D1
:010F1F0001D0
:010F200001CF
:010F210001CE
:010F220001CD
:010F230001CC
:010F240001CB
:010F250001CA
:010F260001C9
:010F270001C8
:010F280001C7
:010F290001C6
:010F2A0001C5
:010F2B0001C4
:010F2C0001C3
:010F2D0001C2
:010F2E0001C1
:010F2F0001C0
:010F300001BF
:010F310001BE
:010F320000BE
:010F330000BD
:010F340000BC
:010F350000BB
:010F360000BA
:010F370000B9
:010F380000B8
:010F390000B7
:010F3A0000B6
:010F3B0000B5
:010F3C0000B4
:010F3D0000B3
:010F3E0000B2
:010F3F0000B1
:010F400000B0
:010F410001AE
:010F420001AD
:010F430001AC
:010F440001AB
:010F450001AA
:010F460001A9
:010F470001A8
:010F480001A7
:010F490001A6
:010F4A0001A5
:010F4B0001A4
:010F4C0001A3
:010F4D0001A2
:010F4E0001A1
:010F4F0001A0
:010F5000019F
:010F5100019E
:010F5200019D
:010F5300019C
:010F5400019B
:010F5500019A
:010F56000199
:010F57000198
:010F58000197
:010F59000196
:010F5A000195
:010F5B000194
:010F5C000193
:010F5D000192
:010F5E000191
:010F5F000190
:010F6000018F
:010F6100018E
:010F6200018D
:010F6300018C
:010F6400018B
:010F6500018A
:010F66000189
:010F67000188
:010F68000187
:010F69000186
:010F6A000185
:010F6B000085
:010F6C000084
:010F6D000083
:010F6E000181
:010F6F000180
:010F7000017F
:010F7100017E
:010F7200017D
:010F7300017C
:010F7400017B
:010F7500017A
:010F76000179
:010F77000178
:010F78000177
:010F79000176
:010F7A000175
:010F7B000174
:010F7C000173
:010F7D000172
:010F7E000171
:010F7F000170
:010F8000016F
:010F8100006F
:010F8200006E
:010F8300006D
:010F8400006C
:010F8500006B
:010F8600006A
:010F87000069
:010F88000068
:010F89000067
:010F8A000066
:010F8B000164
:010F8C000163
:010F8D000063
:010F8E000062
:010F8F000061
:010F9000015F
:010F9100015E
:010F9200015D
:010F9300015C
:010F9400015B
:010F9500015A
:010F96000159
:010F97000158
:010F98000157
:010F99000156
:010F9A000155
:010F9B000154
:010F9C000153
:010F9D000152
:010F9E000151
:010F9F000150
:010FA000014F
:010FA100014E
:010FA200014D
:010FA300014C
:010FA400014B
:010FA500014A
:010FA6000149
:010FA7000148
:010FA8000147
:010FA9000146
:010FAA000145
:010FAB000144
:010FAC000143
:010FAD000142
:010FAE000141
:010FAF000140
:010FB000013F
:010FB100013E
:010FB200013D
:010FB300013C
:010FB400013B
:010FB500013A
:010FB6000139
:010FB7000138
:010FB8000137
:010FB9000136
:010FBA000135
:010FBB000035
:010FBC000034
:010FBD000132
:010FBE000131
:010FBF000130
:010FC000012F
:010FC100012E
:010FC200012D
:010FC300012C
:010FC400012B
:010FC500012A
:010FC6000129
:010FC7000128
:010FC8000127
:010FC9000126
:010FCA000125
:010FCB000124
:010FCC000123
:010FCD000122
:010FCE000121
:010FCF000021
:010FD0000020
:010FD100001F
:010FD200001E
:010FD300001D
:010FD400001C
:010FD500001B
:010FD600001A
:010FD7000019
:010FD8000018
:010FD9000017
:010FDA000115
:010FDB000114
:010FDC000113
:010FDD000013
:010FDE000012
:010FDF000110
:010FE000010F
:010FE100010E
:010FE200010D
:010FE300010C
:010FE400010B
:010FE500010A
:010FE6000109
:010FE7000108
:010FE8000107
:010FE9000106
:010FEA000105
:010FEB000104
:010FEC000103
:010FED000102
:010FEE000101
:010FEF000100
:010FF00001FF
:010FF10001FE
:010FF20001FD
:010FF30001FC
:010FF40001FB
:010FF50001FA
:010FF60001F9
:010FF70001F8
:010FF80001F7
:010FF90001F6
:010FFA0001F5
:010FFB0001F4
:010FFC0001F3
:010FFD0001F2
:010FFE0001F1
:010FFF0001F0
:0110000001EE
:0110010001ED
:0110020001EC
:0110030001EB
:0110040001EA
:0110050001E9
:0110060001E8
:0110070001E7
:0110080001E6
:0110090001E5
:01100A0001E4
:01100B0001E3
:01100C0001E2
:01100D0001E1
:01100E0001E0
:01100F0001DF
:0110100001DE
:0110110001DD
:0110120001DC
:0110130001DB
:0110140001DA
:0110150001D9
:0110160001D8
:0110170001D7
:0110180001D6
:0110190001D5
:01101A0001D4
:01101B0001D3
:01101C0001D2
:01101D0001D1
:01101E0000D1
:01101F0000D0
:0110200000CF
:0110210000CE
:0110220000CD
:0110230000CC
:0110240000CB
:0110250000CA
:0110260000C9
:0110270000C8
:0110280000C7
:0110290001C5
:01102A0001C4
:01102B0001C3
:01102C0001C2
:01102D0001C1
:01102E0001C0
:01102F0001BF
:0110300001BE
:0110310001BD
:0110320001BC
:0110330001BB
:0110340001BA
:0110350001B9
:0110360001B8
:0110370001B7
:0110380001B6
:0110390001B5
:01103A0001B4
:01103B0001B3
:01103C0001B2
:01103D0001B1
:01103E0001B0
:01103F0001AF
:0110400001AE
:0110410001AD
:0110420001AC
:0110430001AB
:0110440001AA
:0110450001A9
:0110460001A8
:0110470001A7
:0110480000A7
:0110490000A6
:01104A0001A4
:01104B0001A3
:01104C0001A2
:01104D0001A1
:01104E0001A0
:01104F00019F
:01105000019E
:01105100019D
:01105200019C
:01105300019B
:01105400019A
:011055000199
:011056000198
:011057000197
:011058000196
:011059000195
:01105A000194
:01105B000193
:01105C000192
:01105D000191
:01105E000190
:01105F00018F
:01106000018E
:01106100018D
:01106200018C
:01106300018B
:01106400018A
:011065000189
:011066000188
:011067000187
:011068000186
:011069000185
:01106A000184
:01106B000183
:01106C000182
:01106D000181
:01106E000180
:01106F00017F
:01107000007F
:01107100007E
:01107200007D
:01107300007C
:01107400007B
:01107500007A
:011076000079
:011077000078
:011078000176
:011079000175
:01107A000174
:01107B000173
:01107C000172
:01107D000171
:01107E000170
:01107F00016F
:01108000016E
:01108100016D
:01108200016C
:01108300016B
:01108400016A
:011085000169
:011086000168
:011087000167
:011088000166
:011089000165
:01108A000164
:01108B000163
:01108C000162
:01108D000161
:01108E000160
:01108F00015F
:01109000015E
:01109100015D
:01109200015C
:01109300015B
:01109400015A
:011095000159
:011096000059
:011097000058
:011098000057
:011099000056
:01109A000055
:01109B000054
:01109C000053
:01109D000151
:01109E000150
:01109F00014F
:0110A000014E
:0110A100014D
:0110A200014C
:0110A300014B
:0110A400014A
:0110A5000149
:0110A6000148
:0110A7000147
:0110A8000146
:0110A9000145
:0110AA000144
:0110AB000143
:0110AC000142
:0110AD000141
:0110AE000140
:0110AF00013F
:0110B000013E
:0110B100013D
:0110B200013C
:0110B300013B
:0110B400013A
:0110B5000139
:0110B6000138
:0110B7000137
:0110B8000136
:0110B9000135
:0110BA000134
:0110BB000133
:0110BC000132
:0110BD000131
:0110BE000130
:0110BF000030
:0110C000002F
:0110C100002E
:0110C200002D
:0110C300002C
:0110C400002B
:0110C500002A
:0110C6000029
:0110C7000127
:0110C8000126
:0110C9000125
:0110CA000124
:0110CB000123
:0110CC000122
:0110CD000121
:0110CE000120
:0110CF00011F
:0110D000011E
:0110D100011D
:0110D200011C
:0110D300011B
:0110D400011A
:0110D5000119
:0110D6000118
:0110D7000117
:0110D8000116
:0110D9000115
:0110DA000114
:0110DB000113
:0110DC000112
:0110DD000111
:0110DE000110
:0110DF00010F
:0110E000010E
:0110E100010D
:0110E200010C
:0110E300000C
:0110E400000B
:0110E500000A
:0110E6000009
:0110E7000008
:0110E8000007
:0110E9000006
:0110EA000005
:0110EB000004
:0110EC000003
:0110ED000002
:0110EE000001
:0110EF000000
:0110F00001FE
:0110F10001FD
:0110F20001FC
:0110F30001FB
:0110F40001FA
:0110F50001F9
:0110F60001F8
:0110F70001F7
:0110F80001F6
:0110F90001F5
:0110FA0001F4
:0110FB0001F3
:0110FC0001F2
:0110FD0001F1
:0110FE0001F0
:0110FF0001EF
:0111000001ED
:0111010001EC
:0111020001EB
:0111030001EA
:0111040001E9
:0111050001E8
:0111060001E7
:0111070001E6
:0111080001E5
:0111090001E4
:01110A0001E3
:01110B0001E2
:01110C0001E1
:01110D0001E0
:01110E0000E0
:01110F0000DF
:0111100000DE
:0111110000DD
:0111120000DC
:0111130000DB
:0111140000DA
:0111150000D9
:0111160001D7
:0111170001D6
:0111180001D5
:0111190001D4
:01111A0001D3
:01111B0001D2
:01111C0001D1
:01111D0001D0
:01111E0001CF
:01111F0001CE
:0111200001CD
:0111210001CC
:0111220001CB
:0111230001CA
:0111240001C9
:0111250001C8
:0111260001C7
:0111270001C6
:0111280001C5
:0111290001C4
:01112A0001C3
:01112B0001C2
:01112C0001C1
:01112D0001C0
:01112E0001BF
:01112F0001BE
:0111300001BD
:0111310001BC
:0111320000BC
:0111330000BB
:0111340000BA
:0111350000B9
:0111360000B8
:0111370000B7
:0111380000B6
:0111390000B5
:01113A0000B4
:01113B0000B3
:01113C0000B2
:01113D0000B1
:01113E0000B0
:01113F0000AF
:0111400000AE
:0111410000AD
:0111420000AC
:0111430001AA
:0111440001A9
:0111450001A8
:0111460001A7
:0111470001A6
:0111480001A5
:0111490001A4
:01114A0001A3
:01114B0001A2
:01114C0001A1
:01114D0001A0
:01114E00019F
:01114F00019E
:01115000019D
:01115100019C
:01115200019B
:01115300019A
:01115400009A
:011155000099
:011156000197
:011157000196
:011158000195
:011159000194
:01115A000193
:01115B000192
:01115C000092
:01115D000091
:01115E000090
:01115F00008F
:01116000008E
:01116100008D
:01116200008C
:01116300008B
:01116400008A
:011165000188
:011166000187
:011167000186
:011168000185
:011169000184
:01116A000183
:01116B000182
:01116C000181
:01116D000180
:01116E00017F
:01116F00017E
:01117000017D
:01117100017C
:01117200017B
:01117300017A
:011174000179
:011175000178
:011176000177
:011177000176
:011178000175
:011179000174
:01117A000173
:01117B000172
:01117C000171
:01117D000170
:01117E00016F
:01117F00016E
:01118000016D
:01118100016C
:01118200016B
:01118300006B
:01118400006A
:011185000069
:011186000068
:011187000067
:011188000066
:011189000065
:01118A000064
:01118B000063
:01118C000062
:01118D000061
:01118E000060
:01118F00005F
:01119000005E
:01119100005D
:01119200005C
:01119300005B
:01119400005A
:011195000059
:011196000157
:011197000156
:011198000155
:011199000154
:01119A000153
:01119B000152
:01119C000151
:01119D000150
:01119E00014F
:01119F00014E
:0111A000014D
:0111A100004D
:0111A200004C
:0111A300004B
:0111A400004A
:0111A5000049
:0111A6000147
:0111A7000146
:0111A8000145
:0111A9000144
:0111AA000143
:0111AB000142
:0111AC000141
:0111AD000140
:0111AE000040
:0111AF00003F
:0111B000003E
:0111B100003D
:0111B200003C
:0111B300003B
:0111B4000139
:0111B5000138
:0111B6000137
:0111B7000136
:0111B8000135
:0111B9000134
:0111BA000133
:0111BB000132
:0111BC000131
:0111BD000130
:0111BE00012F
:0111BF00012E
:0111C000012D
:0111C100012C
:0111C200012B
:0111C300012A
:0111C4000129
:0111C5000128
:0111C6000127
:0111C7000126
:0111C8000125
:0111C9000124
:0111CA000123
:0111CB000122
:0111CC000121
:0111CD000120
:0111CE00011F
:0111CF00011E
:0111D000011D
:0111D100011C
:0111D200011B
:0111D300001B
:0111D400001A
:0111D5000019
:0111D6000018
:0111D7000017
:0111D8000016
:0111D9000015
:0111DA000014
