:020000008C6B07
:020001008C6B06
:02000200946CFC
:020003009CACB3
:0200040094ACBA
:020005008C6B02
:0200060094ACB8
:02000700946CF7
:020008007C2B4F
:020009008C6BFE
:02000A008C6BFD
:02000B007C2A4D
:02000C007C2A4C
:02000D007BEA8C
:02000E008C6FF5
:02000F00BE5BD6
:02001000BE59D7
:020011008C6CF5
:020012008C6BF5
:020013007C2A45
:020014008C2A34
:020015008C2A33
:020016008C6BF1
:020017009CABA0
:0200180094ABA7
:0200190094ACA5
:02001A00946BE5
:02001B00946BE4
:02001C00946CE2
:02001D00946CE1
:02001E00946BE1
:02001F008C6AE9
:020020008C2A28
:020021008CABA6
:020022008C6BE5
:02002300946BDC
:02002400946CDA
:02002500946BDA
:02002600946BD9
:02002700946BD8
:0200280073E97A
:020029008C6BDE
:02002A0094AC94
:02002B009CAC8B
:02002C0094AB93
:02002D008C6BDA
:02002E00A531FA
:02002F008BED57
:020030006B6BF8
:0200310073EA70
:020032007C6AE6
:020033007C2926
:0200340073EA6D
:020035009CF439
:02003600BE9E6C
:02003700B65EB3
:02003800BE9D6B
:020039006BACAE
:02003A007BEA5F
:02003B007C2A1D
:02003C008C2A0C
:02003D007C2A1B
:02003E008C2A0A
:02003F0094AB80
:020040009CAC76
:020041009CAC75
:020042009CAC74
:020043009CAC73
:0200440094AB7B
:020045008C6BC2
:020046008C2B01
:02004700946BB8
:020048008C2A00
:020049008C6ABF
:02004A008C2BFD
:02004B00946BB4
:02004C009CAC6A
:02004D00946CB1
:02004E00946BB1
:02004F008C6AB9
:020050007C2A08
:020051008C6BB6
:020052009CAC64
:020053009CAC63
:020054008C6BB3
:020055009CAD60
:02005600BDB536
:020057009CAF5C
:020058006B6AD1
:0200590073EB47
:02005A008C6CAC
:02005B0094AD62
:02005C008C6FA7
:02005D00B5FDEF
:02005E00ADFDF6
:02005F00ADFDF5
:02006000BE5C84
:020061004A68EB
:020062006B6AC7
:020063006BA987
:0200640073A97E
:020065007C2AF3
:020066008C6AA2
:020067009CAB50
:020068009CAD4D
:02006900A4ED04
:02006A009CAC4C
:02006B009CAC4B
:02006C0094AB53
:02006D00946B92
:02006E007C2AEA
:02006F008C2BD8
:0200700094AB4F
:02007100946B8E
:02007200946B8D
:02007300946B8C
:020074009CAC42
:020075009CAD40
:02007600946B89
:02007700946B88
:020078007C2BDF
:020079008C6B8E
:02007A0094AC44
:02007B008C6B8C
:02007C0094AD41
:02007D00A4EFEE
:02007E00A4F2EA
:02007F00A4F2E9
:020080008C2EC4
:02008100A4F3E6
:02008200C5F8BF
:02008300C5B600
:020084009CB529
:02008500ADFDCF
:02008600A5BC17
:02008700A5BC16
:02008800ADFACF
:020089003986B6
:02008A0039C675
:02008B004A67C2
:02008C006328E7
:02008D008C6A7B
:02008E008C6A7A
:02008F00946B70
:020090009C6C66
:020091009CAD24
:020092009CAC24
:0200930094AC2B
:02009400946B6B
:02009500946B6A
:020096008C6A72
:020097008C6B70
:0200980094AB27
:020099008C6B6E
:02009A0094AC24
:02009B009CAC1B
:02009C009CAC1A
:02009D009CAC19
:02009E009CAB19
:02009F0073AA42
:0200A000946C5E
:0200A1009CAC15
:0200A20094AC1C
:0200A300A53185
:0200A400CE5735
:0200A500CE5734
:0200A600BD7427
:0200A7007BAD2F
:0200A8006B6D7E
:0200A900C5F898
:0200AA009CB305
:0200AB00BDB7DF
:0200AC00ADB9EC
:0200AD00B65D3E
:0200AE00ADFCA7
:0200AF00ADFDA5
:0200B000A57732
:0200B100210329
:0200B20020C369
:0200B3002944DE
:0200B40041C643
:0200B50073AA2C
:0200B600946B49
:0200B700946B48
:0200B800946C46
:0200B90094AC05
:0200BA00A4EEB2
:0200BB009CACFB
:0200BC0094AB03
:0200BD008C6A4B
:0200BE008C6A4A
:0200BF0094ACFF
:0200C000946B3F
:0200C100946C3D
:0200C200A4ACEC
:0200C3009C6B34
:0200C4009CACF2
:0200C500946B3A
:0200C6009CABF1
:0200C7004A6885
:0200C800946D35
:0200C900A4EEA3
:0200CA00B5720D
:0200CB00DEDA7B
:0200CC00DEDA7A
:0200CD00CE580B
:0200CE00D65802
:0200CF00D65702
:0200D0009C6F23
:0200D100A4F396
:0200D2006B6D54
:0200D300BDB7B7
:0200D400B5FB7A
:0200D500ADFD7F
:0200D600ADFC7F
:0200D700AE5D1C
:0200D8008CB4E6
:0200D9003143B1
:0200DA003144AF
:0200DB003103EF
:0200DC00398564
:0200DD0041C51B
:0200DE006B6A4B
:0200DF009CADD6
:0200E0009CADD5
:0200E1009CED94
:0200E200A4EE8A
:0200E3009CADD2
:0200E400946B1B
:0200E5008C6A23
:0200E6008C6A22
:0200E700946C17
:0200E8008C6C1E
:0200E900946C15
:0200EA009CACCC
:0200EB0094ABD4
:0200EC00946B13
:0200ED008C6B1A
:0200EE00636B42
:0200EF002946A0
:0200F000946C0E
:0200F100AD312F
:0200F200DEDA54
:0200F300DE9A93
:0200F400CE58E4
:0200F500C5B78D
:0200F600C5B78C
:0200F700BDB793
:0200F800CE59DF
:0200F900B574DC
:0200FA00736D24
:0200FB00BDB78F
:0200FC00ADBB9A
:0200FD00A5FD5F
:0200FE00A5BC9F
:0200FF00B65DEC
:0201000073EF9B
:0201010041C5F6
:02010200522782
:0201030062A8F0
:0201040062A8EF
:0201050062A8EE
:0201060062A8ED
:02010700736A19
:020108008BEC7E
:020109008BEB7E
:02010A009C6DEA
:02010B009CED69
:02010C0094AAB3
:02010D008C6AFA
:02010E008C6AF9
:02010F008C6CF6
:020110008C2B36
:02011100946CEC
:020112009CED62
:0201130094ABAB
:0201140094ABAA
:0201150073ED88
:0201160031C8EE
:0201170018C509
:020118008C6CED
:02011900CE58BE
:02011A00D69974
:02011B00D69973
:02011C00CE57BC
:02011D00C5F724
:02011E00B535F5
:02011F009CB38F
:02012000CDF917
:02012100C5F720
:02012200942F18
:02012300AD76B7
:02012400A5BC78
:02012500A5FC37
:02012600A5BC76
:02012700B69D83
:020128005AEB90
:0201290028C3E9
:02012A0041C6CC
:02012B0062A8C8
:02012C005A2750
:02012D0062A9C5
:02012E0062A8C5
:02012F006AA8BC
:020130007AE96A
:020131007B2928
:020132008B6BD5
:020133008BEC53
:020134008C2B12
:02013500946ACA
:02013600946BC8
:020137008C2B0F
:020138008C2B0E
:02013900946BC5
:02013A009CED3A
:02013B009CAD79
:02013C009CAD78
:02013D005B2C39
:02013E00214658
:02013F001904A1
:020140009CAF72
:02014100D6994D
:02014200D6994C
:02014300D6994B
:02014400CE5794
:02014500C5B73C
:02014600AD34D6
:02014700AD35D4
:02014800CE598E
:02014900CDF7F0
:02014A00AD33D3
:02014B00A536D7
:02014C009DBC58
:02014D00A5FC0F
:02014E00A5BC4E
:02014F00AE5BA5
:020150005268F3
:0201510028C3C1
:0201520049C79B
:0201530049C69B
:0201540051C692
:020155006268DE
:020156006267DE
:020157006267DD
:0201580072E94A
:020159007B2900
:02015A007B29FF
:02015B00732906
:02015C00732A04
:02015D007B6ABB
:02015E008BEB29
:02015F008C2AE8
:020160008C6BA6
:020161008C6AA6
:020162009CAC53
:020163009CAD51
:0201640094AC59
:020165003186E1
:0201660010C4C3
:0201670018C4BA
:02016800A4F100
:02016900D69925
:02016A00D69924
:02016B00D69923
:02016C00CE576C
:02016D00A535B6
:02016E0094B645
:02016F009CF6FC
:02017000C5F9CF
:02017100C5B710
:02017200BD745A
:0201730094F600
:02017400A5BD27
:02017500A5BC27
:02017600A5BC26
:02017700ADBA1F
:0201780051C66E
:02017900310350
:02017A0041C77B
:02017B004186BB
:02017C0051C66A
:02017D006268B6
:02017E006268B5
:02017F006A67AD
:0201800072A764
:020181007AE81A
:020182007AE918
:0201830072E820
:020184006AE827
:0201850072E91D
:0201860072EA1B
:02018700736A99
:020188008C2CBD
:02018900946B75
:02018A00946B74
:02018B00946B73
:02018C008CAB3A
:02018D0039C572
:02018E00214707
:02018F002989BC
:02019000B57444
:02019100D699FD
:02019200D699FC
:02019300D699FB
:02019400CE5744
:02019500B5B8FB
:020196009D3892
:02019700B5B9F8
:02019800C5F8A8
:02019900C5F7A8
:02019A00B5347A
:02019B008CB620
:02019C00A5BDFF
:02019D009DBC07
:02019E00A5FDBD
:02019F009D378A
:0201A00051C646
:0201A10049848F
:0201A20049C64C
:0201A30049C74A
:0201A40049868A
:0201A5005A28D6
:0201A60062688D
:0201A7006226CE
:0201A8006A26C5
:0201A9006A26C4
:0201AA006227CA
:0201AB00626789
:0201AC006AA83F
:0201AD006AE7FF
:0201AE006AA73E
:0201AF006AA83C
:0201B00062E902
:0201B1006B6A77
:0201B200946C4B
:0201B3009CAD01
:0201B4007C2CA1
:0201B500636D78
:0201B6003A2BE2
:0201B70021071E
:0201B800BDB6D2
:0201B900D699D5
:0201BA00D698D5
:0201BB00D698D4
:0201BC00C5F686
:0201BD00CE9BD7
:0201BE00CE9CD5
:0201BF00D6DB8D
:0201C000C5F880
:0201C100CDF778
:0201C200B53452
:0201C30094F7AF
:0201C400A5BCD8
:0201C500A5BCD7
:0201C600AE5D2C
:0201C7008CB4F6
:0201C80051855F
:0201C9006226AC
:0201CA005A26B3
:0201CB0041866B
:0201CC0041866A
:0201CD005A27AF
:0201CE005A26AF
:0201CF006226A6
:0201D0006A675C
:0201D10061C605
:0201D20051C614
:0201D3005A6769
:0201D4006AA916
:0201D5005A26A8
:0201D6006AA716
:0201D70062A71D
:0201D8005A6863
:0201D9005A6862
:0201DA006AEACF
:0201DB00736A45
:0201DC005226A9
:0201DD003145AA
:0201DE0039875F
:0201DF005AEDD7
:0201E000CE58F7
:0201E100D699AD
:0201E200DE99A4
:0201E300DE98A4
:0201E400CE58F3
:0201E500C65BF7
:0201E600BDFA60
:0201E700C65AF6
:0201E800CE59EE
:0201E900C5B699
:0201EA00B5342A
:0201EB009D7AFB
:0201EC00A5BCB0
:0201ED009DBCB7
:0201EE00AE5E03
:0201EF007BF1A2
:0201F000518438
:0201F10059C5EE
:0201F20051C5F5
:0201F30039448D
:0201F4004104C4
:0201F50049457A
:0201F60051C5F1
:0201F70062277D
:0201F80072682B
:0201F9006A2773
:0201FA00498535
:0201FB005A2781
:0201FC006A6730
:0201FD0041447B
:0201FE00622776
:0201FF0072E8A4
:02020000626733
:020201005A673A
:020202005A6838
:0202030062A8EF
:0202040072E79F
:020205006A6726
:02020600414471
:02020700298745
:02020800CE59CD
:02020900D69885
:02020A00DE997B
:02020B00DE997A
:02020C00D658C2
:02020D00D6DC3D
:02020E00D71EF9
:02020F00D6DC3B
:02021000CE58C6
:02021100B53402
:02021200BD76B7
:020213009D7BD1
:020214009DBC8F
:020215009D7BCF
:02021600AE5DDB
:02021700736D05
:0202180051840F
:0202190059C5C5
:02021A00494455
:02021B00394464
:02021C0041445B
:02021D00518509
:02021E00518607
:02021F006A690A
:0202200072A9C1
:0202210072A9C0
:0202220049850C
:020223005A2857
:0202240072A8BE
:0202250051C5C1
:0202260059C7B6
:0202270072A8BB
:020228006AA8C2
:02022900626809
:02022A00626808
:02022B0062A8C7
:02022C006AA7BF
:02022D006AA8BD
:02022E006A67FD
:02022F00418408
:02023000CE59A5
:02023100D6995C
:02023200DE9953
:02023300DE9952
:02023400D6589A
:02023500C65AA7
:02023600CE9B5D
:02023700D69B54
:02023800C5F708
:02023900B534DA
:02023A00BDF80D
:02023B009D7BA9
:02023C009DBC67
:02023D0095BC6E
:02023E00AE5DB3
:02023F006B2C26
:02024000414338
:020241004184F6
:0202420051C6A3
:020243003986FA
:020244004186F1
:020245004985E9
:020246005186DF
:0202470062282B
:0202480062282A
:0202490051C69C
:02024A004985E4
:02024B005A2730
:02024C0072E955
:02024D005A272E
:02024E006187C6
:02024F006A68DB
:020250006A67DB
:020251006A68D9
:020252006AA997
:0202530062A99E
:0202540062A79F
:020255006AA895
:020256006AA894
:020257006267DC
:02025800D69935
:02025900D65875
:02025A00DE992B
:02025B00DE992A
:02025C00D65872
:02025D00D6DDEC
:02025E00D71EA9
:02025F00D6DCEB
:02026000B57572
:02026100BDB529
:02026200B5B92C
:020263009D7B81
:020264009DBC3F
:02026500957B87
:02026600AE5D8B
:0202670062EA49
:0202680028C3A9
:020269004185CD
:02026A00522719
:02026B00394513
:02026C0049C780
:02026D0051C678
:02026E005185B8
:02026F0059C66E
:0202700059C66D
:02027100414505
:0202720049C77A
:020273006268BF
:020274006AA975
:0202750051C670
:0202760061C85D
:020277006267BC
:020278005A2703
:020279006A68B1
:02027A006AA96F
:02027B006AE92E
:02027C0062A876
:02027D0062A776
:02027E006AE92B
:02027F006AA86B
:02028000D6990D
:02028100D6980D
:02028200D6980C
:02028300D6980B
:02028400D65949
:02028500D69C05
:02028600DF1D7A
:02028700D6DBC4
:02028800A4F3DD
:02028900C5B6F8
:02028A00ADB80D
:02028B00957C60
:02028C00957C5F
:02028D00957B5F
:02028E00AE5D63
:02028F005269B2
:0202900028C381
:0202910049C65C
:020292003945EC
:020293003944EC
:020294005227EF
:020295005A67A6
:0202960051C550
:0202970059C646
:0202980061C73C
:0202990051C74B
:02029A005228E8
:02029B00626897
:02029C005A26E0
:02029D004946D0
:02029E006A688C
:02029F006A678C
:0202A0005A27DB
:0202A10062A950
:0202A2006AA947
:0202A30062A94E
:0202A40062A84E
:0202A5006AA845
:0202A60072E9FB
:0202A7007329B9
:0202A800DEDB9B
:0202A900DE99DC
:0202AA00DE98DC
:0202AB00DE99DA
:0202AC00CE582A
:0202AD00D699E0
:0202AE00D69ADE
:0202AF00CE5827
:0202B0009C713F
:0202B100C5B6D0
:0202B200A5782D
:0202B300957B39
:0202B400957B38
:0202B5009DBCEE
:0202B600AE5C3C
:0202B7004A27D4
:0202B80028C359
:0202B90041C63C
:0202BA003944C5
:0202BB0049C632
:0202BC005227C7
:0202BD005A687D
:0202BE006227B5
:0202BF006A27AC
:0202C0006227B3
:0202C1005A28B9
:0202C2005228C0
:0202C30062686F
:0202C40049846B
:0202C500498668
:0202C6006A6864
:0202C7006A6764
:0202C800626969
:0202C900626968
:0202CA00626868
:0202CB0062A827
:0202CC0062A826
:0202CD006AA81D
:0202CE006AE9DB
:0202CF007B2A88
:0202D000D699BD
:0202D100DE99B4
:0202D200DE99B3
:0202D300D698BB
:0202D400CE5802
:0202D500D658F9
:0202D600B5343D
:0202D700DE99AE
:0202D80094711F
:0202D900C5B6A8
:0202DA00A53845
:0202DB00957B11
:0202DC00957B10
:0202DD009DBCC6
:0202DE00ADBAB7
:0202DF0039855F
:0202E0003904DF
:0202E1005227A2
:0202E200418554
:0202E3005227A0
:0202E4005A6856
:0202E50062684D
:0202E60062684C
:0202E70072A9FA
:0202E8006A6743
:0202E9005A2792
:0202EA00522898
:0202EB00626847
:0202EC0041844B
:0202ED00626845
:0202EE006A683C
:0202EF00626843
:0202F0005A684A
:0202F10072EAAF
:0202F2006AE9B7
:0202F3005AA807
:0202F40062A8FE
:0202F5006AA8F5
:0202F6006AE9B3
:0202F70072EAA9
:0202F800D658D6
:0202F900D658D5
:0202FA00DE998B
:0202FB00D658D3
:0202FC00D658D2
:0202FD00ACF360
:0202FE00B575D4
:0202FF00E6DA3D
:02030000A4F265
:02030100CDF736
:020302009D3824
:02030300957BE8
:02030400957BE7
:02030500A5FD54
:020306009CF663
:02030700394378
:0203080041852D
:02030900626828
:02030A004A2681
:02030B00522777
:02030C005A682D
:02030D00626824
:02030E006AA9DA
:02030F007AE989
:020310007AE988
:020311006A6719
:020312005A6827
:020313005A6826
:020314005A6726
:0203150062671D
:0203160062681B
:020317006AE991
:0203180093ADA3
:020319009BEE59
:02031A006AE98E
:02031B005A681E
:02031C0062A7D6
:02031D0062A9D3
:02031E006AE98A
:02031F006AEA88
:02032000DEDA23
:02032100CE57B5
:02032200D658AB
:02032300CE57B3
:02032400ACF338
:02032500943111
:02032600DE995E
:02032700E6D915
:02032800BD75A1
:02032900CE57AD
:02032A0094F746
:02032B009D7CB7
:02032C00957BBF
:02032D00B65EBA
:02032E007BEF63
:02032F00418407
:0203300051C6B4
:020331005A2749
:02033200522750
:0203330052274F
:020334006268FD
:020335006268FC
:0203360072A9AA
:020337007AE961
:020338007AE960
:0203390072E868
:02033A006AA8AF
:02033B0072A8A6
:02033C007B291B
:02033D007B2A19
:02033E007B6BD7
:02033F0093ED3C
:0203400093ED3B
:020341006AAAA6
:020342005A68F7
:0203430062A8AE
:020344006267EE
:0203450062A9AB
:020346006AA9A2
:020347006AA9A1
:02034800CE588D
:02034900DEDAFA
:02034A00D65784
:02034B00B57487
:02034C007BEE46
:02034D00A4B357
:02034E00DED9F6
:02034F00DEDAF4
:02035000D6587D
:02035100CDF7E6
:020352008CB667
:02035300957C97
:020354009D7C8E
:02035500B5FCF5
:020356005AA9A2
:0203570051C58E
:0203580052272A
:020359005A67E1
:02035A005267E8
:02035B00522727
:02035C006267D6
:02035D006A68CC
:02035E0072A883
:02035F008B29E8
:02036000936A9E
:020361007B29F6
:0203620072E93E
:020363009BED10
:02036400A42DC6
:020365009BEC0F
:0203660093AB57
:020367008BAB5E
:02036800732AF6
:020369005A68D0
:02036A005A67D0
:02036B006267C7
:02036C006AA87D
:02036D006AA97B
:02036E006AA97A
:02036F006AA979
:02037000AD32AC
:02037100E71B88
:02037200D6981B
:02037300A4B232
:0203740073AD67
:02037500BDB514
:02037600DEDACD
:02037700DEDACC
:02037800DEDACB
:02037900BD7451
:02037A007435D8
:02037B009DBC27
:02037C00B69E2B
:02037D007C748E
:02037E004185B7
:02037F006267B3
:020380005A67BA
:020381005A27F9
:0203820051C662
:020383006267AF
:020384006AA865
:020385009BAB30
:02038600AC2C9D
:02038700AC2D9B
:020388009BAB2D
:020389007B2ACD
:02038A00732AD4
:02038B009BECE9
:02038C00A42D9E
:02038D009BEDE6
:02038E009BEDE5
:02038F0093AD2C
:0203900072EA0F
:0203910062A860
:0203920062A85F
:020393006AA856
:020394006AA954
:020395006AA953
:020396006AA952
:020397006AA951
:020398008C6C6B
:02039900BDB6EF
:02039A00DED9AA
:02039B009CB113
:02039C00946F5C
:02039D00CDF79A
:02039E00DE99E6
:02039F00DEDAA4
:0203A000DE99E4
:0203A100B57431
:0203A2007C7667
:0203A300B69F03
:0203A4009D7842
:0203A500210530
:0203A600290428
:0203A7004A27E3
:0203A800626988
:0203A90062A947
:0203AA00936B53
:0203AB00936B52
:0203AC00AC2D76
:0203AD00B46E2C
:0203AE00ABECB6
:0203AF009BECC5
:0203B0009BECC4
:0203B1009BECC3
:0203B2009BECC2
:0203B300A42D77
:0203B400A42D76
:0203B50093AD06
:0203B6007B6B5F
:0203B7006AE9F1
:0203B80062A839
:0203B9006AA830
:0203BA006A686F
:0203BB006AA82E
:0203BC007AEADB
:0203BD008B2B88
:0203BE008B6C46
:0203BF007B2B96
:0203C0009CADF2
:0203C10094ADF9
:0203C200D6580B
:0203C300B5740F
:0203C400B5334F
:0203C500D698C8
:0203C600DE99BE
:0203C700D699C5
:0203C800D65904
:0203C900DE98BC
:0203CA0094F6A7
:0203CB00743587
:0203CC00210509
:0203CD0010829C
:0203CE0018C352
:0203CF00210407
:0203D0003146B4
:0203D1005A6967
:0203D20072A90E
:0203D3008B2A73
:0203D400936B29
:0203D50093ACE7
:0203D600A3ED95
:0203D700AC2D4B
:0203D800AC2D4A
:0203D900A3ED92
:0203DA00A42D50
:0203DB009BED98
:0203DC008B6C28
:0203DD006AA90B
:0203DE00626952
:0203DF00626852
:0203E00072E9C0
:0203E1007B2A75
:0203E200936B1B
:0203E300A42D47
:0203E400AC6FFC
:0203E500AC2E3C
:0203E6009BEE8C
:0203E700B4F66A
:0203E8009CADCA
:0203E9009CADC9
:0203EA00AD3232
:0203EB00CE58EA
:0203EC00D658E1
:0203ED00DE9997
:0203EE00D6989F
:0203EF00C5F750
:0203F000D659DC
:0203F100E71B08
:0203F200942E47
:0203F3002904DB
:0203F4002103E3
:0203F50018C22C
:0203F60018C32A
:0203F70018C22A
:0203F80018C328
:0203F900398643
:0203FA00522788
:0203FB00626836
:0203FC0072E9A4
:0203FD00936B00
:0203FE00A3ED6D
:0203FF00AC2D23
:02040000A42D29
:020401009BED71
:020402009BADB0
:020403008B6C00
:0204040072EA9A
:020405006AA9E2
:020406008B6AFF
:02040700A3EC64
:02040800AC2E18
:02040900B46FCE
:02040A00B46FCD
:02040B00BC6FC4
:02040C00AC2F13
:02040D00ACB28F
:02040E00B53700
:02040F008C3629
:0204100094ABAB
:020411009CACA1
:0204120094ABA9
:02041300AD3208
:02041400CE58C0
:02041500D69A75
:02041600CE58BE
:02041700C5B668
:02041800CE58BC
:02041900DEDB28
:02041A00C575A6
:02041B0049C6D0
:02041C002103BA
:02041D0018C203
:02041E0018C301
:02041F0018C201
:0204200018C3FF
:020421002905AB
:0204220049850A
:0204230051C5C1
:0204240072A9BB
:020425008B6BDF
:02042600A3EC45
:02042700936AD6
:020428005A6810
:02042900522857
:02042A00522856
:02042B00732933
:02042C007B2B28
:02042D0093AE8C
:02042E00A471B7
:02042F00A42FF8
:02043000AC2FEF
:02043100BCB15C
:02043200BC719B
:02043300B471A2
:02043400BCF515
:02043500A4B66B
:020436008C76C2
:0204370052EE83
:0204380094AB83
:0204390094AB82
:02043A009CAB79
:02043B0094AB80
:02043C008CAB87
:02043D009CEE33
:02043E00B57394
:02043F00CE9855
:02044000DEDA02
:02044100BDB745
:020442009C71AB
:020443005AA8B5
:0204440029038A
:02044500210391
:02044600108222
:02044700108221
:02044800290386
:02044900394434
:02044A00522638
:02044B0051C599
:02044C0051C697
:02044D009BAD65
:02044E00D533A4
:02044F009B6BA5
:02045000084161
:02045100084160
:020452003A2549
:020453008C2AF1
:0204540073E94A
:020455004A2932
:020456003A2C3E
:0204570052EE63
:0204580094749A
:02045900B4F6F7
:02045A00B537B4
:02045B00B538B2
:02045C00AD7A77
:02045D0094B752
:02045E006C35FB
:02045F005BF54B
:02046000946C9A
:0204610094AC59
:020462009CEC10
:020463009CEC0F
:0204640094AA58
:0204650094AA57
:02046600946B95
:020467009CAE49
:02046800B5736A
:02046900946F8E
:02046A008BED18
:02046B008BEC18
:02046C004A271D
:02046D0020C3AA
:02046E001082FA
:02046F00310456
:020470005186B3
:0204710049C67A
:020472005A2707
:020473006A67B6
:020474006A27F5
:02047500932CC6
:02047600BCB216
:020477005A2603
:0204780020C2A0
:0204790039C484
:02047A0073E924
:02047B008C2AC9
:02047C008C2AC8
:02047D004AAB88
:02047E004AAF83
:02047F004B33FD
:0204800074B84E
:02048100957B69
:020482008D3AB1
:0204830094F9EA
:020484008CF8F2
:020485007CF900
:020486006CF90F
:020487005C77A0
:02048800946B73
:0204890094AC31
:02048A009CECE8
:02048B009CECE7
:02048C0094EBEF
:02048D009CAC25
:02048E0094AB2D
:02048F008C6A75
:020490008C6A74
:02049100946B6A
:02049200942CA8
:020493008BECF0
:0204940049C657
:02049500290339
:0204960018C389
:020497003144EE
:02049800598683
:020499004946D2
:02049A0059C641
:02049B0061C737
:02049C005A28DC
:02049D005227E4
:02049E007329C0
:02049F006B6888
:0204A00073A93E
:0204A100946B5A
:0204A2008C2AA2
:0204A3008C2AA1
:0204A40073AB38
:0204A500426DA6
:0204A60063747D
:0204A7004AF118
:0204A8007C7660
:0204A900ADBBE9
:0204AA00A5FBB0
:0204AB00A5BAF0
:0204AC009DBAF7
:0204AD009DBAF6
:0204AE00A5BAED
:0204AF00ADB9E5
:00000001FF
