:0100000001FE
:0100010001FD
:0100020001FC
:0100030001FB
:0100040001FA
:0100050001F9
:0100060001F8
:0100070001F7
:0100080001F6
:0100090000F6
:01000A0000F5
:01000B0000F4
:01000C0001F2
:01000D0001F1
:01000E0001F0
:01000F0001EF
:0100100001EE
:0100110001ED
:0100120001EC
:0100130001EB
:0100140001EA
:0100150001E9
:0100160001E8
:0100170001E7
:0100180001E6
:0100190001E5
:01001A0001E4
:01001B0000E4
:01001C0000E3
:01001D0000E2
:01001E0000E1
:01001F0000E0
:0100200000DF
:0100210000DE
:0100220001DC
:0100230001DB
:0100240001DA
:0100250001D9
:0100260001D8
:0100270001D7
:0100280001D6
:0100290001D5
:01002A0001D4
:01002B0001D3
:01002C0001D2
:01002D0001D1
:01002E0000D1
:01002F0000D0
:0100300000CF
:0100310000CE
:0100320000CD
:0100330000CC
:0100340000CB
:0100350000CA
:0100360000C9
:0100370000C8
:0100380001C6
:0100390001C5
:01003A0001C4
:01003B0001C3
:01003C0001C2
:01003D0001C1
:01003E0001C0
:01003F0001BF
:0100400000BF
:0100410000BE
:0100420000BD
:0100430000BC
:0100440000BB
:0100450000BA
:0100460000B9
:0100470000B8
:0100480000B7
:0100490000B6
:01004A0000B5
:01004B0000B4
:01004C0000B3
:01004D0001B1
:01004E0001B0
:01004F0001AF
:0100500001AE
:0100510001AD
:0100520001AC
:0100530000AC
:0100540000AB
:0100550000AA
:0100560000A9
:0100570000A8
:0100580000A7
:0100590000A6
:01005A0000A5
:01005B0000A4
:01005C0000A3
:01005D0000A2
:01005E0000A1
:01005F0000A0
:01006000009F
:01006100019D
:01006200019C
:01006300019B
:01006400019A
:010065000199
:010066000198
:010067000098
:010068000097
:010069000096
:01006A000095
:01006B000094
:01006C000093
:01006D000092
:01006E000091
:01006F000090
:01007000008F
:01007100008E
:01007200008D
:01007300008C
:01007400008B
:01007500008A
:010076000188
:010077000187
:010078000186
:010079000185
:01007A000085
:01007B000084
:01007C000083
:01007D000082
:01007E000081
:01007F000080
:01008000007F
:01008100007E
:01008200007D
:01008300007C
:01008400007B
:01008500007A
:010086000079
:010087000078
:010088000077
:010089000076
:01008A000174
:01008B000173
:01008C000172
:01008D000171
:01008E000071
:01008F000070
:01009000006F
:01009100006E
:01009200006D
:01009300006C
:01009400006B
:01009500006A
:010096000069
:010097000068
:010098000067
:010099000066
:01009A000065
:01009B000064
:01009C000063
:01009D000062
:01009E000061
:01009F00015F
:0100A000015E
:0100A100015D
:0100A200005D
:0100A300005C
:0100A400005B
:0100A500005A
:0100A6000059
:0100A7000058
:0100A8000057
:0100A9000056
:0100AA000055
:0100AB000054
:0100AC000053
:0100AD000052
:0100AE000051
:0100AF000050
:0100B000004F
:0100B100004E
:0100B200004D
:0100B300014B
:0100B400014A
:0100B5000149
:0100B6000049
:0100B7000048
:0100B8000047
:0100B9000046
:0100BA000045
:0100BB000044
:0100BC000043
:0100BD000042
:0100BE000041
:0100BF000040
:0100C000003F
:0100C100003E
:0100C200003D
:0100C300003C
:0100C400003B
:0100C500003A
:0100C6000039
:0100C7000137
:0100C8000136
:0100C9000036
:0100CA000035
:0100CB000034
:0100CC000033
:0100CD000032
:0100CE000031
:0100CF000030
:0100D000002F
:0100D100002E
:0100D200002D
:0100D300002C
:0100D400002B
:0100D500002A
:0100D6000029
:0100D7000028
:0100D8000027
:0100D9000026
:0100DA000025
:0100DB000123
:0100DC000122
:0100DD000022
:0100DE000021
:0100DF000020
:0100E000001F
:0100E100001E
:0100E200001D
:0100E300001C
:0100E400001B
:0100E500001A
:0100E6000019
:0100E7000018
:0100E8000017
:0100E9000016
:0100EA000015
:0100EB000014
:0100EC000013
:0100ED000012
:0100EE000011
:0100EF00010F
:0100F000010E
:0100F100000E
:0100F200000D
:0100F300000C
:0100F400000B
:0100F500000A
:0100F6000009
:0100F7000008
:0100F8000007
:0100F9000006
:0100FA000005
:0100FB000004
:0100FC000003
:0100FD000002
:0100FE000001
:0100FF000000
:0101000000FE
:0101010000FD
:0101020000FC
:0101030001FA
:0101040001F9
:0101050001F8
:0101060000F8
:0101070000F7
:0101080000F6
:0101090000F5
:01010A0000F4
:01010B0000F3
:01010C0000F2
:01010D0000F1
:01010E0000F0
:01010F0000EF
:0101100000EE
:0101110000ED
:0101120000EC
:0101130000EB
:0101140000EA
:0101150000E9
:0101160001E7
:0101170001E6
:0101180001E5
:0101190001E4
:01011A0000E4
:01011B0000E3
:01011C0000E2
:01011D0000E1
:01011E0000E0
:01011F0000DF
:0101200000DE
:0101210000DD
:0101220000DC
:0101230000DB
:0101240000DA
:0101250000D9
:0101260000D8
:0101270000D7
:0101280000D6
:0101290000D5
:01012A0001D3
:01012B0001D2
:01012C0001D1
:01012D0001D0
:01012E0001CF
:01012F0000CF
:0101300000CE
:0101310000CD
:0101320000CC
:0101330000CB
:0101340000CA
:0101350000C9
:0101360000C8
:0101370000C7
:0101380000C6
:0101390000C5
:01013A0000C4
:01013B0000C3
:01013C0000C2
:01013D0001C0
:01013E0001BF
:01013F0001BE
:0101400001BD
:0101410001BC
:0101420001BB
:0101430000BB
:0101440000BA
:0101450000B9
:0101460000B8
:0101470000B7
:0101480000B6
:0101490000B5
:01014A0000B4
:01014B0000B3
:01014C0000B2
:01014D0000B1
:01014E0000B0
:01014F0000AF
:0101500000AE
:0101510001AC
:0101520001AB
:0101530001AA
:0101540001A9
:0101550001A8
:0101560001A7
:0101570001A6
:0101580000A6
:0101590000A5
:01015A0000A4
:01015B0000A3
:01015C0000A2
:01015D0000A1
:01015E0000A0
:01015F00009F
:01016000009E
:01016100009D
:01016200009C
:01016300009B
:010164000199
:010165000198
:010166000197
:010167000196
:010168000195
:010169000194
:01016A000193
:01016B000192
:01016C000191
:01016D000190
:01016E000090
:01016F00008F
:01017000008E
:01017100008D
:01017200008C
:01017300008B
:01017400008A
:010175000089
:010176000187
:010177000186
:010178000185
:010179000184
:01017A000183
:01017B000182
:01017C000181
:01017D000180
:01017E00017F
:01017F00017E
:01018000017D
:01018100017C
:01018200017B
:01018300017A
:01018400007A
:010185000079
:010186000078
:010187000077
:010188000175
:010189000174
:01018A000173
:01018B000172
:01018C000171
:01018D000170
:01018E00016F
:01018F00016E
:00000001FF
